{
	"bt/StudentData.sol": {
		"Student": {
			"abi": [
				{
					"stateMutability": "payable",
					"type": "fallback"
				},
				{
					"inputs": [
						{
							"internalType": "string",
							"name": "name",
							"type": "string"
						},
						{
							"internalType": "uint256",
							"name": "rollno",
							"type": "uint256"
						}
					],
					"name": "addStudent",
					"outputs": [],
					"stateMutability": "nonpayable",
					"type": "function"
				},
				{
					"inputs": [],
					"name": "displayAll",
					"outputs": [
						{
							"components": [
								{
									"internalType": "string",
									"name": "name",
									"type": "string"
								},
								{
									"internalType": "uint256",
									"name": "rollno",
									"type": "uint256"
								}
							],
							"internalType": "struct Student.StudentStruct[]",
							"name": "",
							"type": "tuple[]"
						}
					],
					"stateMutability": "view",
					"type": "function"
				},
				{
					"inputs": [
						{
							"internalType": "uint256",
							"name": "idx",
							"type": "uint256"
						}
					],
					"name": "getStudentByIndex",
					"outputs": [
						{
							"components": [
								{
									"internalType": "string",
									"name": "name",
									"type": "string"
								},
								{
									"internalType": "uint256",
									"name": "rollno",
									"type": "uint256"
								}
							],
							"internalType": "struct Student.StudentStruct",
							"name": "",
							"type": "tuple"
						}
					],
					"stateMutability": "view",
					"type": "function"
				},
				{
					"inputs": [],
					"name": "getStudentLen",
					"outputs": [
						{
							"internalType": "uint256",
							"name": "",
							"type": "uint256"
						}
					],
					"stateMutability": "view",
					"type": "function"
				},
				{
					"inputs": [
						{
							"internalType": "uint256",
							"name": "",
							"type": "uint256"
						}
					],
					"name": "studentarr",
					"outputs": [
						{
							"internalType": "string",
							"name": "name",
							"type": "string"
						},
						{
							"internalType": "uint256",
							"name": "rollno",
							"type": "uint256"
						}
					],
					"stateMutability": "view",
					"type": "function"
				},
				{
					"stateMutability": "payable",
					"type": "receive"
				}
			],
			"devdoc": {
				"kind": "dev",
				"methods": {},
				"version": 1
			},
			"evm": {
				"assembly": "    /* \"bt/StudentData.sol\":67:1223  contract Student{... */\n  mstore(0x40, 0x80)\n  callvalue\n  dup1\n  iszero\n  tag_1\n  jumpi\n  revert(0x00, 0x00)\ntag_1:\n  pop\n  dataSize(sub_0)\n  dup1\n  dataOffset(sub_0)\n  0x00\n  codecopy\n  0x00\n  return\nstop\n\nsub_0: assembly {\n        /* \"bt/StudentData.sol\":67:1223  contract Student{... */\n      mstore(0x40, 0x80)\n      jumpi(tag_1, lt(calldatasize, 0x04))\n      shr(0xe0, calldataload(0x00))\n      dup1\n      0x0e5eeef7\n      eq\n      tag_3\n      jumpi\n      dup1\n      0x4c9beb53\n      eq\n      tag_4\n      jumpi\n      dup1\n      0x811197c1\n      eq\n      tag_5\n      jumpi\n      dup1\n      0xd623bdd1\n      eq\n      tag_6\n      jumpi\n      dup1\n      0xdc78302b\n      eq\n      tag_7\n      jumpi\n      jump(tag_2)\n    tag_1:\n      jumpi(tag_2, calldatasize)\n      stop\n    tag_2:\n        /* \"bt/StudentData.sol\":1097:1107  revert(\"\") */\n      mload(0x40)\n      0x08c379a000000000000000000000000000000000000000000000000000000000\n      dup2\n      mstore\n      0x04\n      add\n      tag_12\n      swap1\n      tag_13\n      jump\t// in\n    tag_12:\n      mload(0x40)\n      dup1\n      swap2\n      sub\n      swap1\n      revert\n        /* \"bt/StudentData.sol\":247:560  function addStudent(string memory name, uint rollno) public {... */\n    tag_3:\n      callvalue\n      dup1\n      iszero\n      tag_14\n      jumpi\n      revert(0x00, 0x00)\n    tag_14:\n      pop\n      tag_15\n      0x04\n      dup1\n      calldatasize\n      sub\n      dup2\n      add\n      swap1\n      tag_16\n      swap2\n      swap1\n      tag_17\n      jump\t// in\n    tag_16:\n      tag_18\n      jump\t// in\n    tag_15:\n      stop\n        /* \"bt/StudentData.sol\":669:770  function displayAll() public view returns(StudentStruct[] memory){... */\n    tag_4:\n      callvalue\n      dup1\n      iszero\n      tag_19\n      jumpi\n      revert(0x00, 0x00)\n    tag_19:\n      pop\n      tag_20\n      tag_21\n      jump\t// in\n    tag_20:\n      mload(0x40)\n      tag_22\n      swap2\n      swap1\n      tag_23\n      jump\t// in\n    tag_22:\n      mload(0x40)\n      dup1\n      swap2\n      sub\n      swap1\n      return\n        /* \"bt/StudentData.sol\":203:236  StudentStruct[] public studentarr */\n    tag_5:\n      callvalue\n      dup1\n      iszero\n      tag_24\n      jumpi\n      revert(0x00, 0x00)\n    tag_24:\n      pop\n      tag_25\n      0x04\n      dup1\n      calldatasize\n      sub\n      dup2\n      add\n      swap1\n      tag_26\n      swap2\n      swap1\n      tag_27\n      jump\t// in\n    tag_26:\n      tag_28\n      jump\t// in\n    tag_25:\n      mload(0x40)\n      tag_29\n      swap3\n      swap2\n      swap1\n      tag_30\n      jump\t// in\n    tag_29:\n      mload(0x40)\n      dup1\n      swap2\n      sub\n      swap1\n      return\n        /* \"bt/StudentData.sol\":568:661  function getStudentLen() public view returns(uint){... */\n    tag_6:\n      callvalue\n      dup1\n      iszero\n      tag_31\n      jumpi\n      revert(0x00, 0x00)\n    tag_31:\n      pop\n      tag_32\n      tag_33\n      jump\t// in\n    tag_32:\n      mload(0x40)\n      tag_34\n      swap2\n      swap1\n      tag_35\n      jump\t// in\n    tag_34:\n      mload(0x40)\n      dup1\n      swap2\n      sub\n      swap1\n      return\n        /* \"bt/StudentData.sol\":778:960  function getStudentByIndex(uint idx) public view returns(StudentStruct memory){... */\n    tag_7:\n      callvalue\n      dup1\n      iszero\n      tag_36\n      jumpi\n      revert(0x00, 0x00)\n    tag_36:\n      pop\n      tag_37\n      0x04\n      dup1\n      calldatasize\n      sub\n      dup2\n      add\n      swap1\n      tag_38\n      swap2\n      swap1\n      tag_27\n      jump\t// in\n    tag_38:\n      tag_39\n      jump\t// in\n    tag_37:\n      mload(0x40)\n      tag_40\n      swap2\n      swap1\n      tag_41\n      jump\t// in\n    tag_40:\n      mload(0x40)\n      dup1\n      swap2\n      sub\n      swap1\n      return\n        /* \"bt/StudentData.sol\":247:560  function addStudent(string memory name, uint rollno) public {... */\n    tag_18:\n        /* \"bt/StudentData.sol\":322:328  uint i */\n      0x00\n        /* \"bt/StudentData.sol\":331:332  0 */\n      0x00\n        /* \"bt/StudentData.sol\":322:332  uint i = 0 */\n      swap1\n      pop\n        /* \"bt/StudentData.sol\":318:499  for(uint i = 0; i<studentarr.length; i++){... */\n    tag_43:\n        /* \"bt/StudentData.sol\":336:346  studentarr */\n      0x00\n        /* \"bt/StudentData.sol\":336:353  studentarr.length */\n      dup1\n      sload\n      swap1\n      pop\n        /* \"bt/StudentData.sol\":334:335  i */\n      dup2\n        /* \"bt/StudentData.sol\":334:353  i<studentarr.length */\n      lt\n        /* \"bt/StudentData.sol\":318:499  for(uint i = 0; i<studentarr.length; i++){... */\n      iszero\n      tag_44\n      jumpi\n        /* \"bt/StudentData.sol\":399:405  rollno */\n      dup2\n        /* \"bt/StudentData.sol\":377:387  studentarr */\n      0x00\n        /* \"bt/StudentData.sol\":388:389  i */\n      dup3\n        /* \"bt/StudentData.sol\":377:390  studentarr[i] */\n      dup2\n      sload\n      dup2\n      lt\n      tag_46\n      jumpi\n      tag_47\n      tag_48\n      jump\t// in\n    tag_47:\n    tag_46:\n      swap1\n      0x00\n      mstore\n      keccak256(0x00, 0x20)\n      swap1\n      0x02\n      mul\n      add\n        /* \"bt/StudentData.sol\":377:397  studentarr[i].rollno */\n      0x01\n      add\n      sload\n        /* \"bt/StudentData.sol\":377:405  studentarr[i].rollno==rollno */\n      sub\n        /* \"bt/StudentData.sol\":374:488  if(studentarr[i].rollno==rollno){... */\n      tag_50\n      jumpi\n        /* \"bt/StudentData.sol\":425:472  revert(\"Student with this name already exists\") */\n      mload(0x40)\n      0x08c379a000000000000000000000000000000000000000000000000000000000\n      dup2\n      mstore\n      0x04\n      add\n      tag_51\n      swap1\n      tag_52\n      jump\t// in\n    tag_51:\n      mload(0x40)\n      dup1\n      swap2\n      sub\n      swap1\n      revert\n        /* \"bt/StudentData.sol\":374:488  if(studentarr[i].rollno==rollno){... */\n    tag_50:\n        /* \"bt/StudentData.sol\":355:358  i++ */\n      dup1\n      dup1\n      0x01\n      add\n      swap2\n      pop\n      pop\n        /* \"bt/StudentData.sol\":318:499  for(uint i = 0; i<studentarr.length; i++){... */\n      jump(tag_43)\n    tag_44:\n      pop\n        /* \"bt/StudentData.sol\":509:519  studentarr */\n      0x00\n        /* \"bt/StudentData.sol\":525:551  StudentStruct(name,rollno) */\n      mload(0x40)\n      dup1\n      0x40\n      add\n      0x40\n      mstore\n      dup1\n        /* \"bt/StudentData.sol\":539:543  name */\n      dup5\n        /* \"bt/StudentData.sol\":525:551  StudentStruct(name,rollno) */\n      dup2\n      mstore\n      0x20\n      add\n        /* \"bt/StudentData.sol\":544:550  rollno */\n      dup4\n        /* \"bt/StudentData.sol\":525:551  StudentStruct(name,rollno) */\n      dup2\n      mstore\n      pop\n        /* \"bt/StudentData.sol\":509:552  studentarr.push(StudentStruct(name,rollno)) */\n      swap1\n      dup1\n      0x01\n      dup2\n      sload\n      add\n      dup1\n      dup3\n      sstore\n      dup1\n      swap2\n      pop\n      pop\n      0x01\n      swap1\n      sub\n      swap1\n      0x00\n      mstore\n      keccak256(0x00, 0x20)\n      swap1\n      0x02\n      mul\n      add\n      0x00\n      swap1\n      swap2\n      swap1\n      swap2\n      swap1\n      swap2\n      pop\n      0x00\n      dup3\n      add\n      mload\n      dup2\n      0x00\n      add\n      swap1\n      dup2\n      tag_54\n      swap2\n      swap1\n      tag_55\n      jump\t// in\n    tag_54:\n      pop\n      0x20\n      dup3\n      add\n      mload\n      dup2\n      0x01\n      add\n      sstore\n      pop\n      pop\n        /* \"bt/StudentData.sol\":247:560  function addStudent(string memory name, uint rollno) public {... */\n      pop\n      pop\n      jump\t// out\n        /* \"bt/StudentData.sol\":669:770  function displayAll() public view returns(StudentStruct[] memory){... */\n    tag_21:\n        /* \"bt/StudentData.sol\":711:733  StudentStruct[] memory */\n      0x60\n        /* \"bt/StudentData.sol\":752:762  studentarr */\n      0x00\n        /* \"bt/StudentData.sol\":745:762  return studentarr */\n      dup1\n      sload\n      dup1\n      0x20\n      mul\n      0x20\n      add\n      mload(0x40)\n      swap1\n      dup2\n      add\n      0x40\n      mstore\n      dup1\n      swap3\n      swap2\n      swap1\n      dup2\n      dup2\n      mstore\n      0x20\n      add\n      0x00\n      swap1\n    tag_57:\n      dup3\n      dup3\n      lt\n      iszero\n      tag_58\n      jumpi\n      dup4\n      dup3\n      swap1\n      0x00\n      mstore\n      keccak256(0x00, 0x20)\n      swap1\n      0x02\n      mul\n      add\n      mload(0x40)\n      dup1\n      0x40\n      add\n      0x40\n      mstore\n      swap1\n      dup2\n      0x00\n      dup3\n      add\n      dup1\n      sload\n      tag_60\n      swap1\n      tag_61\n      jump\t// in\n    tag_60:\n      dup1\n      0x1f\n      add\n      0x20\n      dup1\n      swap2\n      div\n      mul\n      0x20\n      add\n      mload(0x40)\n      swap1\n      dup2\n      add\n      0x40\n      mstore\n      dup1\n      swap3\n      swap2\n      swap1\n      dup2\n      dup2\n      mstore\n      0x20\n      add\n      dup3\n      dup1\n      sload\n      tag_62\n      swap1\n      tag_61\n      jump\t// in\n    tag_62:\n      dup1\n      iszero\n      tag_63\n      jumpi\n      dup1\n      0x1f\n      lt\n      tag_64\n      jumpi\n      0x0100\n      dup1\n      dup4\n      sload\n      div\n      mul\n      dup4\n      mstore\n      swap2\n      0x20\n      add\n      swap2\n      jump(tag_63)\n    tag_64:\n      dup3\n      add\n      swap2\n      swap1\n      0x00\n      mstore\n      keccak256(0x00, 0x20)\n      swap1\n    tag_65:\n      dup2\n      sload\n      dup2\n      mstore\n      swap1\n      0x01\n      add\n      swap1\n      0x20\n      add\n      dup1\n      dup4\n      gt\n      tag_65\n      jumpi\n      dup3\n      swap1\n      sub\n      0x1f\n      and\n      dup3\n      add\n      swap2\n    tag_63:\n      pop\n      pop\n      pop\n      pop\n      pop\n      dup2\n      mstore\n      0x20\n      add\n      0x01\n      dup3\n      add\n      sload\n      dup2\n      mstore\n      pop\n      pop\n      dup2\n      mstore\n      0x20\n      add\n      swap1\n      0x01\n      add\n      swap1\n      jump(tag_57)\n    tag_58:\n      pop\n      pop\n      pop\n      pop\n      swap1\n      pop\n        /* \"bt/StudentData.sol\":669:770  function displayAll() public view returns(StudentStruct[] memory){... */\n      swap1\n      jump\t// out\n        /* \"bt/StudentData.sol\":203:236  StudentStruct[] public studentarr */\n    tag_28:\n      0x00\n      dup2\n      dup2\n      sload\n      dup2\n      lt\n      tag_66\n      jumpi\n      0x00\n      dup1\n      revert\n    tag_66:\n      swap1\n      0x00\n      mstore\n      keccak256(0x00, 0x20)\n      swap1\n      0x02\n      mul\n      add\n      0x00\n      swap2\n      pop\n      swap1\n      pop\n      dup1\n      0x00\n      add\n      dup1\n      sload\n      tag_68\n      swap1\n      tag_61\n      jump\t// in\n    tag_68:\n      dup1\n      0x1f\n      add\n      0x20\n      dup1\n      swap2\n      div\n      mul\n      0x20\n      add\n      mload(0x40)\n      swap1\n      dup2\n      add\n      0x40\n      mstore\n      dup1\n      swap3\n      swap2\n      swap1\n      dup2\n      dup2\n      mstore\n      0x20\n      add\n      dup3\n      dup1\n      sload\n      tag_69\n      swap1\n      tag_61\n      jump\t// in\n    tag_69:\n      dup1\n      iszero\n      tag_70\n      jumpi\n      dup1\n      0x1f\n      lt\n      tag_71\n      jumpi\n      0x0100\n      dup1\n      dup4\n      sload\n      div\n      mul\n      dup4\n      mstore\n      swap2\n      0x20\n      add\n      swap2\n      jump(tag_70)\n    tag_71:\n      dup3\n      add\n      swap2\n      swap1\n      0x00\n      mstore\n      keccak256(0x00, 0x20)\n      swap1\n    tag_72:\n      dup2\n      sload\n      dup2\n      mstore\n      swap1\n      0x01\n      add\n      swap1\n      0x20\n      add\n      dup1\n      dup4\n      gt\n      tag_72\n      jumpi\n      dup3\n      swap1\n      sub\n      0x1f\n      and\n      dup3\n      add\n      swap2\n    tag_70:\n      pop\n      pop\n      pop\n      pop\n      pop\n      swap1\n      dup1\n      0x01\n      add\n      sload\n      swap1\n      pop\n      dup3\n      jump\t// out\n        /* \"bt/StudentData.sol\":568:661  function getStudentLen() public view returns(uint){... */\n    tag_33:\n        /* \"bt/StudentData.sol\":613:617  uint */\n      0x00\n        /* \"bt/StudentData.sol\":636:646  studentarr */\n      0x00\n        /* \"bt/StudentData.sol\":636:653  studentarr.length */\n      dup1\n      sload\n      swap1\n      pop\n        /* \"bt/StudentData.sol\":629:653  return studentarr.length */\n      swap1\n      pop\n        /* \"bt/StudentData.sol\":568:661  function getStudentLen() public view returns(uint){... */\n      swap1\n      jump\t// out\n        /* \"bt/StudentData.sol\":778:960  function getStudentByIndex(uint idx) public view returns(StudentStruct memory){... */\n    tag_39:\n        /* \"bt/StudentData.sol\":835:855  StudentStruct memory */\n      tag_74\n      tag_75\n      jump\t// in\n    tag_74:\n        /* \"bt/StudentData.sol\":879:889  studentarr */\n      0x00\n        /* \"bt/StudentData.sol\":879:896  studentarr.length */\n      dup1\n      sload\n      swap1\n      pop\n        /* \"bt/StudentData.sol\":875:878  idx */\n      dup3\n        /* \"bt/StudentData.sol\":875:896  idx<studentarr.length */\n      lt\n        /* \"bt/StudentData.sol\":867:919  require(idx<studentarr.length, \"Index out of bound\") */\n      tag_77\n      jumpi\n      mload(0x40)\n      0x08c379a000000000000000000000000000000000000000000000000000000000\n      dup2\n      mstore\n      0x04\n      add\n      tag_78\n      swap1\n      tag_79\n      jump\t// in\n    tag_78:\n      mload(0x40)\n      dup1\n      swap2\n      sub\n      swap1\n      revert\n    tag_77:\n        /* \"bt/StudentData.sol\":937:947  studentarr */\n      0x00\n        /* \"bt/StudentData.sol\":948:951  idx */\n      dup3\n        /* \"bt/StudentData.sol\":937:952  studentarr[idx] */\n      dup2\n      sload\n      dup2\n      lt\n      tag_80\n      jumpi\n      tag_81\n      tag_48\n      jump\t// in\n    tag_81:\n    tag_80:\n      swap1\n      0x00\n      mstore\n      keccak256(0x00, 0x20)\n      swap1\n      0x02\n      mul\n      add\n        /* \"bt/StudentData.sol\":930:952  return studentarr[idx] */\n      mload(0x40)\n      dup1\n      0x40\n      add\n      0x40\n      mstore\n      swap1\n      dup2\n      0x00\n      dup3\n      add\n      dup1\n      sload\n      tag_83\n      swap1\n      tag_61\n      jump\t// in\n    tag_83:\n      dup1\n      0x1f\n      add\n      0x20\n      dup1\n      swap2\n      div\n      mul\n      0x20\n      add\n      mload(0x40)\n      swap1\n      dup2\n      add\n      0x40\n      mstore\n      dup1\n      swap3\n      swap2\n      swap1\n      dup2\n      dup2\n      mstore\n      0x20\n      add\n      dup3\n      dup1\n      sload\n      tag_84\n      swap1\n      tag_61\n      jump\t// in\n    tag_84:\n      dup1\n      iszero\n      tag_85\n      jumpi\n      dup1\n      0x1f\n      lt\n      tag_86\n      jumpi\n      0x0100\n      dup1\n      dup4\n      sload\n      div\n      mul\n      dup4\n      mstore\n      swap2\n      0x20\n      add\n      swap2\n      jump(tag_85)\n    tag_86:\n      dup3\n      add\n      swap2\n      swap1\n      0x00\n      mstore\n      keccak256(0x00, 0x20)\n      swap1\n    tag_87:\n      dup2\n      sload\n      dup2\n      mstore\n      swap1\n      0x01\n      add\n      swap1\n      0x20\n      add\n      dup1\n      dup4\n      gt\n      tag_87\n      jumpi\n      dup3\n      swap1\n      sub\n      0x1f\n      and\n      dup3\n      add\n      swap2\n    tag_85:\n      pop\n      pop\n      pop\n      pop\n      pop\n      dup2\n      mstore\n      0x20\n      add\n      0x01\n      dup3\n      add\n      sload\n      dup2\n      mstore\n      pop\n      pop\n      swap1\n      pop\n        /* \"bt/StudentData.sol\":778:960  function getStudentByIndex(uint idx) public view returns(StudentStruct memory){... */\n      swap2\n      swap1\n      pop\n      jump\t// out\n    tag_75:\n      mload(0x40)\n      dup1\n      0x40\n      add\n      0x40\n      mstore\n      dup1\n      0x60\n      dup2\n      mstore\n      0x20\n      add\n      0x00\n      dup2\n      mstore\n      pop\n      swap1\n      jump\t// out\n        /* \"#utility.yul\":7:176   */\n    tag_88:\n        /* \"#utility.yul\":91:102   */\n      0x00\n        /* \"#utility.yul\":125:131   */\n      dup3\n        /* \"#utility.yul\":120:123   */\n      dup3\n        /* \"#utility.yul\":113:132   */\n      mstore\n        /* \"#utility.yul\":165:169   */\n      0x20\n        /* \"#utility.yul\":160:163   */\n      dup3\n        /* \"#utility.yul\":156:170   */\n      add\n        /* \"#utility.yul\":141:170   */\n      swap1\n      pop\n        /* \"#utility.yul\":7:176   */\n      swap3\n      swap2\n      pop\n      pop\n      jump\t// out\n        /* \"#utility.yul\":182:296   */\n    tag_89:\n      pop\n      jump\t// out\n        /* \"#utility.yul\":302:666   */\n    tag_90:\n        /* \"#utility.yul\":444:447   */\n      0x00\n        /* \"#utility.yul\":465:531   */\n      tag_146\n        /* \"#utility.yul\":529:530   */\n      0x00\n        /* \"#utility.yul\":524:527   */\n      dup4\n        /* \"#utility.yul\":465:531   */\n      tag_88\n      jump\t// in\n    tag_146:\n        /* \"#utility.yul\":458:531   */\n      swap2\n      pop\n        /* \"#utility.yul\":540:633   */\n      tag_147\n        /* \"#utility.yul\":629:632   */\n      dup3\n        /* \"#utility.yul\":540:633   */\n      tag_89\n      jump\t// in\n    tag_147:\n        /* \"#utility.yul\":658:659   */\n      0x00\n        /* \"#utility.yul\":653:656   */\n      dup3\n        /* \"#utility.yul\":649:660   */\n      add\n        /* \"#utility.yul\":642:660   */\n      swap1\n      pop\n        /* \"#utility.yul\":302:666   */\n      swap2\n      swap1\n      pop\n      jump\t// out\n        /* \"#utility.yul\":672:1091   */\n    tag_13:\n        /* \"#utility.yul\":838:842   */\n      0x00\n        /* \"#utility.yul\":876:878   */\n      0x20\n        /* \"#utility.yul\":865:874   */\n      dup3\n        /* \"#utility.yul\":861:879   */\n      add\n        /* \"#utility.yul\":853:879   */\n      swap1\n      pop\n        /* \"#utility.yul\":925:934   */\n      dup2\n        /* \"#utility.yul\":919:923   */\n      dup2\n        /* \"#utility.yul\":915:935   */\n      sub\n        /* \"#utility.yul\":911:912   */\n      0x00\n        /* \"#utility.yul\":900:909   */\n      dup4\n        /* \"#utility.yul\":896:913   */\n      add\n        /* \"#utility.yul\":889:936   */\n      mstore\n        /* \"#utility.yul\":953:1084   */\n      tag_149\n        /* \"#utility.yul\":1079:1083   */\n      dup2\n        /* \"#utility.yul\":953:1084   */\n      tag_90\n      jump\t// in\n    tag_149:\n        /* \"#utility.yul\":945:1084   */\n      swap1\n      pop\n        /* \"#utility.yul\":672:1091   */\n      swap2\n      swap1\n      pop\n      jump\t// out\n        /* \"#utility.yul\":1097:1172   */\n    tag_91:\n        /* \"#utility.yul\":1130:1136   */\n      0x00\n        /* \"#utility.yul\":1163:1165   */\n      0x40\n        /* \"#utility.yul\":1157:1166   */\n      mload\n        /* \"#utility.yul\":1147:1166   */\n      swap1\n      pop\n        /* \"#utility.yul\":1097:1172   */\n      swap1\n      jump\t// out\n        /* \"#utility.yul\":1178:1295   */\n    tag_92:\n        /* \"#utility.yul\":1287:1288   */\n      0x00\n        /* \"#utility.yul\":1284:1285   */\n      0x00\n        /* \"#utility.yul\":1277:1289   */\n      revert\n        /* \"#utility.yul\":1301:1418   */\n    tag_93:\n        /* \"#utility.yul\":1410:1411   */\n      0x00\n        /* \"#utility.yul\":1407:1408   */\n      0x00\n        /* \"#utility.yul\":1400:1412   */\n      revert\n        /* \"#utility.yul\":1424:1541   */\n    tag_94:\n        /* \"#utility.yul\":1533:1534   */\n      0x00\n        /* \"#utility.yul\":1530:1531   */\n      0x00\n        /* \"#utility.yul\":1523:1535   */\n      revert\n        /* \"#utility.yul\":1547:1664   */\n    tag_95:\n        /* \"#utility.yul\":1656:1657   */\n      0x00\n        /* \"#utility.yul\":1653:1654   */\n      0x00\n        /* \"#utility.yul\":1646:1658   */\n      revert\n        /* \"#utility.yul\":1670:1772   */\n    tag_96:\n        /* \"#utility.yul\":1711:1717   */\n      0x00\n        /* \"#utility.yul\":1762:1764   */\n      0x1f\n        /* \"#utility.yul\":1758:1765   */\n      not\n        /* \"#utility.yul\":1753:1755   */\n      0x1f\n        /* \"#utility.yul\":1746:1751   */\n      dup4\n        /* \"#utility.yul\":1742:1756   */\n      add\n        /* \"#utility.yul\":1738:1766   */\n      and\n        /* \"#utility.yul\":1728:1766   */\n      swap1\n      pop\n        /* \"#utility.yul\":1670:1772   */\n      swap2\n      swap1\n      pop\n      jump\t// out\n        /* \"#utility.yul\":1778:1958   */\n    tag_97:\n        /* \"#utility.yul\":1826:1903   */\n      0x4e487b7100000000000000000000000000000000000000000000000000000000\n        /* \"#utility.yul\":1823:1824   */\n      0x00\n        /* \"#utility.yul\":1816:1904   */\n      mstore\n        /* \"#utility.yul\":1923:1927   */\n      0x41\n        /* \"#utility.yul\":1920:1921   */\n      0x04\n        /* \"#utility.yul\":1913:1928   */\n      mstore\n        /* \"#utility.yul\":1947:1951   */\n      0x24\n        /* \"#utility.yul\":1944:1945   */\n      0x00\n        /* \"#utility.yul\":1937:1952   */\n      revert\n        /* \"#utility.yul\":1964:2245   */\n    tag_98:\n        /* \"#utility.yul\":2047:2074   */\n      tag_158\n        /* \"#utility.yul\":2069:2073   */\n      dup3\n        /* \"#utility.yul\":2047:2074   */\n      tag_96\n      jump\t// in\n    tag_158:\n        /* \"#utility.yul\":2039:2045   */\n      dup2\n        /* \"#utility.yul\":2035:2075   */\n      add\n        /* \"#utility.yul\":2177:2183   */\n      dup2\n        /* \"#utility.yul\":2165:2175   */\n      dup2\n        /* \"#utility.yul\":2162:2184   */\n      lt\n        /* \"#utility.yul\":2141:2159   */\n      0xffffffffffffffff\n        /* \"#utility.yul\":2129:2139   */\n      dup3\n        /* \"#utility.yul\":2126:2160   */\n      gt\n        /* \"#utility.yul\":2123:2185   */\n      or\n        /* \"#utility.yul\":2120:2208   */\n      iszero\n      tag_159\n      jumpi\n        /* \"#utility.yul\":2188:2206   */\n      tag_160\n      tag_97\n      jump\t// in\n    tag_160:\n        /* \"#utility.yul\":2120:2208   */\n    tag_159:\n        /* \"#utility.yul\":2228:2238   */\n      dup1\n        /* \"#utility.yul\":2224:2226   */\n      0x40\n        /* \"#utility.yul\":2217:2239   */\n      mstore\n        /* \"#utility.yul\":2007:2245   */\n      pop\n        /* \"#utility.yul\":1964:2245   */\n      pop\n      pop\n      jump\t// out\n        /* \"#utility.yul\":2251:2380   */\n    tag_99:\n        /* \"#utility.yul\":2285:2291   */\n      0x00\n        /* \"#utility.yul\":2312:2332   */\n      tag_162\n      tag_91\n      jump\t// in\n    tag_162:\n        /* \"#utility.yul\":2302:2332   */\n      swap1\n      pop\n        /* \"#utility.yul\":2341:2374   */\n      tag_163\n        /* \"#utility.yul\":2369:2373   */\n      dup3\n        /* \"#utility.yul\":2361:2367   */\n      dup3\n        /* \"#utility.yul\":2341:2374   */\n      tag_98\n      jump\t// in\n    tag_163:\n        /* \"#utility.yul\":2251:2380   */\n      swap2\n      swap1\n      pop\n      jump\t// out\n        /* \"#utility.yul\":2386:2694   */\n    tag_100:\n        /* \"#utility.yul\":2448:2452   */\n      0x00\n        /* \"#utility.yul\":2538:2556   */\n      0xffffffffffffffff\n        /* \"#utility.yul\":2530:2536   */\n      dup3\n        /* \"#utility.yul\":2527:2557   */\n      gt\n        /* \"#utility.yul\":2524:2580   */\n      iszero\n      tag_165\n      jumpi\n        /* \"#utility.yul\":2560:2578   */\n      tag_166\n      tag_97\n      jump\t// in\n    tag_166:\n        /* \"#utility.yul\":2524:2580   */\n    tag_165:\n        /* \"#utility.yul\":2598:2627   */\n      tag_167\n        /* \"#utility.yul\":2620:2626   */\n      dup3\n        /* \"#utility.yul\":2598:2627   */\n      tag_96\n      jump\t// in\n    tag_167:\n        /* \"#utility.yul\":2590:2627   */\n      swap1\n      pop\n        /* \"#utility.yul\":2682:2686   */\n      0x20\n        /* \"#utility.yul\":2676:2680   */\n      dup2\n        /* \"#utility.yul\":2672:2687   */\n      add\n        /* \"#utility.yul\":2664:2687   */\n      swap1\n      pop\n        /* \"#utility.yul\":2386:2694   */\n      swap2\n      swap1\n      pop\n      jump\t// out\n        /* \"#utility.yul\":2700:2848   */\n    tag_101:\n        /* \"#utility.yul\":2798:2804   */\n      dup3\n        /* \"#utility.yul\":2793:2796   */\n      dup2\n        /* \"#utility.yul\":2788:2791   */\n      dup4\n        /* \"#utility.yul\":2775:2805   */\n      calldatacopy\n        /* \"#utility.yul\":2839:2840   */\n      0x00\n        /* \"#utility.yul\":2830:2836   */\n      dup4\n        /* \"#utility.yul\":2825:2828   */\n      dup4\n        /* \"#utility.yul\":2821:2837   */\n      add\n        /* \"#utility.yul\":2814:2841   */\n      mstore\n        /* \"#utility.yul\":2700:2848   */\n      pop\n      pop\n      pop\n      jump\t// out\n        /* \"#utility.yul\":2854:3279   */\n    tag_102:\n        /* \"#utility.yul\":2932:2937   */\n      0x00\n        /* \"#utility.yul\":2957:3023   */\n      tag_170\n        /* \"#utility.yul\":2973:3022   */\n      tag_171\n        /* \"#utility.yul\":3015:3021   */\n      dup5\n        /* \"#utility.yul\":2973:3022   */\n      tag_100\n      jump\t// in\n    tag_171:\n        /* \"#utility.yul\":2957:3023   */\n      tag_99\n      jump\t// in\n    tag_170:\n        /* \"#utility.yul\":2948:3023   */\n      swap1\n      pop\n        /* \"#utility.yul\":3046:3052   */\n      dup3\n        /* \"#utility.yul\":3039:3044   */\n      dup2\n        /* \"#utility.yul\":3032:3053   */\n      mstore\n        /* \"#utility.yul\":3084:3088   */\n      0x20\n        /* \"#utility.yul\":3077:3082   */\n      dup2\n        /* \"#utility.yul\":3073:3089   */\n      add\n        /* \"#utility.yul\":3122:3125   */\n      dup5\n        /* \"#utility.yul\":3113:3119   */\n      dup5\n        /* \"#utility.yul\":3108:3111   */\n      dup5\n        /* \"#utility.yul\":3104:3120   */\n      add\n        /* \"#utility.yul\":3101:3126   */\n      gt\n        /* \"#utility.yul\":3098:3210   */\n      iszero\n      tag_172\n      jumpi\n        /* \"#utility.yul\":3129:3208   */\n      tag_173\n      tag_95\n      jump\t// in\n    tag_173:\n        /* \"#utility.yul\":3098:3210   */\n    tag_172:\n        /* \"#utility.yul\":3219:3273   */\n      tag_174\n        /* \"#utility.yul\":3266:3272   */\n      dup5\n        /* \"#utility.yul\":3261:3264   */\n      dup3\n        /* \"#utility.yul\":3256:3259   */\n      dup6\n        /* \"#utility.yul\":3219:3273   */\n      tag_101\n      jump\t// in\n    tag_174:\n        /* \"#utility.yul\":2938:3279   */\n      pop\n        /* \"#utility.yul\":2854:3279   */\n      swap4\n      swap3\n      pop\n      pop\n      pop\n      jump\t// out\n        /* \"#utility.yul\":3299:3639   */\n    tag_103:\n        /* \"#utility.yul\":3355:3360   */\n      0x00\n        /* \"#utility.yul\":3404:3407   */\n      dup3\n        /* \"#utility.yul\":3397:3401   */\n      0x1f\n        /* \"#utility.yul\":3389:3395   */\n      dup4\n        /* \"#utility.yul\":3385:3402   */\n      add\n        /* \"#utility.yul\":3381:3408   */\n      slt\n        /* \"#utility.yul\":3371:3493   */\n      tag_176\n      jumpi\n        /* \"#utility.yul\":3412:3491   */\n      tag_177\n      tag_94\n      jump\t// in\n    tag_177:\n        /* \"#utility.yul\":3371:3493   */\n    tag_176:\n        /* \"#utility.yul\":3529:3535   */\n      dup2\n        /* \"#utility.yul\":3516:3536   */\n      calldataload\n        /* \"#utility.yul\":3554:3633   */\n      tag_178\n        /* \"#utility.yul\":3629:3632   */\n      dup5\n        /* \"#utility.yul\":3621:3627   */\n      dup3\n        /* \"#utility.yul\":3614:3618   */\n      0x20\n        /* \"#utility.yul\":3606:3612   */\n      dup7\n        /* \"#utility.yul\":3602:3619   */\n      add\n        /* \"#utility.yul\":3554:3633   */\n      tag_102\n      jump\t// in\n    tag_178:\n        /* \"#utility.yul\":3545:3633   */\n      swap2\n      pop\n        /* \"#utility.yul\":3361:3639   */\n      pop\n        /* \"#utility.yul\":3299:3639   */\n      swap3\n      swap2\n      pop\n      pop\n      jump\t// out\n        /* \"#utility.yul\":3645:3722   */\n    tag_104:\n        /* \"#utility.yul\":3682:3689   */\n      0x00\n        /* \"#utility.yul\":3711:3716   */\n      dup2\n        /* \"#utility.yul\":3700:3716   */\n      swap1\n      pop\n        /* \"#utility.yul\":3645:3722   */\n      swap2\n      swap1\n      pop\n      jump\t// out\n        /* \"#utility.yul\":3728:3850   */\n    tag_105:\n        /* \"#utility.yul\":3801:3825   */\n      tag_181\n        /* \"#utility.yul\":3819:3824   */\n      dup2\n        /* \"#utility.yul\":3801:3825   */\n      tag_104\n      jump\t// in\n    tag_181:\n        /* \"#utility.yul\":3794:3799   */\n      dup2\n        /* \"#utility.yul\":3791:3826   */\n      eq\n        /* \"#utility.yul\":3781:3844   */\n      tag_182\n      jumpi\n        /* \"#utility.yul\":3840:3841   */\n      0x00\n        /* \"#utility.yul\":3837:3838   */\n      0x00\n        /* \"#utility.yul\":3830:3842   */\n      revert\n        /* \"#utility.yul\":3781:3844   */\n    tag_182:\n        /* \"#utility.yul\":3728:3850   */\n      pop\n      jump\t// out\n        /* \"#utility.yul\":3856:3995   */\n    tag_106:\n        /* \"#utility.yul\":3902:3907   */\n      0x00\n        /* \"#utility.yul\":3940:3946   */\n      dup2\n        /* \"#utility.yul\":3927:3947   */\n      calldataload\n        /* \"#utility.yul\":3918:3947   */\n      swap1\n      pop\n        /* \"#utility.yul\":3956:3989   */\n      tag_184\n        /* \"#utility.yul\":3983:3988   */\n      dup2\n        /* \"#utility.yul\":3956:3989   */\n      tag_105\n      jump\t// in\n    tag_184:\n        /* \"#utility.yul\":3856:3995   */\n      swap3\n      swap2\n      pop\n      pop\n      jump\t// out\n        /* \"#utility.yul\":4001:4655   */\n    tag_17:\n        /* \"#utility.yul\":4079:4085   */\n      0x00\n        /* \"#utility.yul\":4087:4093   */\n      0x00\n        /* \"#utility.yul\":4136:4138   */\n      0x40\n        /* \"#utility.yul\":4124:4133   */\n      dup4\n        /* \"#utility.yul\":4115:4122   */\n      dup6\n        /* \"#utility.yul\":4111:4134   */\n      sub\n        /* \"#utility.yul\":4107:4139   */\n      slt\n        /* \"#utility.yul\":4104:4223   */\n      iszero\n      tag_186\n      jumpi\n        /* \"#utility.yul\":4142:4221   */\n      tag_187\n      tag_92\n      jump\t// in\n    tag_187:\n        /* \"#utility.yul\":4104:4223   */\n    tag_186:\n        /* \"#utility.yul\":4290:4291   */\n      0x00\n        /* \"#utility.yul\":4279:4288   */\n      dup4\n        /* \"#utility.yul\":4275:4292   */\n      add\n        /* \"#utility.yul\":4262:4293   */\n      calldataload\n        /* \"#utility.yul\":4320:4338   */\n      0xffffffffffffffff\n        /* \"#utility.yul\":4312:4318   */\n      dup2\n        /* \"#utility.yul\":4309:4339   */\n      gt\n        /* \"#utility.yul\":4306:4423   */\n      iszero\n      tag_188\n      jumpi\n        /* \"#utility.yul\":4342:4421   */\n      tag_189\n      tag_93\n      jump\t// in\n    tag_189:\n        /* \"#utility.yul\":4306:4423   */\n    tag_188:\n        /* \"#utility.yul\":4447:4510   */\n      tag_190\n        /* \"#utility.yul\":4502:4509   */\n      dup6\n        /* \"#utility.yul\":4493:4499   */\n      dup3\n        /* \"#utility.yul\":4482:4491   */\n      dup7\n        /* \"#utility.yul\":4478:4500   */\n      add\n        /* \"#utility.yul\":4447:4510   */\n      tag_103\n      jump\t// in\n    tag_190:\n        /* \"#utility.yul\":4437:4510   */\n      swap3\n      pop\n        /* \"#utility.yul\":4233:4520   */\n      pop\n        /* \"#utility.yul\":4559:4561   */\n      0x20\n        /* \"#utility.yul\":4585:4638   */\n      tag_191\n        /* \"#utility.yul\":4630:4637   */\n      dup6\n        /* \"#utility.yul\":4621:4627   */\n      dup3\n        /* \"#utility.yul\":4610:4619   */\n      dup7\n        /* \"#utility.yul\":4606:4628   */\n      add\n        /* \"#utility.yul\":4585:4638   */\n      tag_106\n      jump\t// in\n    tag_191:\n        /* \"#utility.yul\":4575:4638   */\n      swap2\n      pop\n        /* \"#utility.yul\":4530:4648   */\n      pop\n        /* \"#utility.yul\":4001:4655   */\n      swap3\n      pop\n      swap3\n      swap1\n      pop\n      jump\t// out\n        /* \"#utility.yul\":4661:4803   */\n    tag_107:\n        /* \"#utility.yul\":4756:4762   */\n      0x00\n        /* \"#utility.yul\":4790:4795   */\n      dup2\n        /* \"#utility.yul\":4784:4796   */\n      mload\n        /* \"#utility.yul\":4774:4796   */\n      swap1\n      pop\n        /* \"#utility.yul\":4661:4803   */\n      swap2\n      swap1\n      pop\n      jump\t// out\n        /* \"#utility.yul\":4809:5021   */\n    tag_108:\n        /* \"#utility.yul\":4936:4947   */\n      0x00\n        /* \"#utility.yul\":4970:4976   */\n      dup3\n        /* \"#utility.yul\":4965:4968   */\n      dup3\n        /* \"#utility.yul\":4958:4977   */\n      mstore\n        /* \"#utility.yul\":5010:5014   */\n      0x20\n        /* \"#utility.yul\":5005:5008   */\n      dup3\n        /* \"#utility.yul\":5001:5015   */\n      add\n        /* \"#utility.yul\":4986:5015   */\n      swap1\n      pop\n        /* \"#utility.yul\":4809:5021   */\n      swap3\n      swap2\n      pop\n      pop\n      jump\t// out\n        /* \"#utility.yul\":5027:5187   */\n    tag_109:\n        /* \"#utility.yul\":5122:5126   */\n      0x00\n        /* \"#utility.yul\":5145:5148   */\n      dup2\n        /* \"#utility.yul\":5137:5148   */\n      swap1\n      pop\n        /* \"#utility.yul\":5175:5179   */\n      0x20\n        /* \"#utility.yul\":5170:5173   */\n      dup3\n        /* \"#utility.yul\":5166:5180   */\n      add\n        /* \"#utility.yul\":5158:5180   */\n      swap1\n      pop\n        /* \"#utility.yul\":5027:5187   */\n      swap2\n      swap1\n      pop\n      jump\t// out\n        /* \"#utility.yul\":5193:5292   */\n    tag_110:\n        /* \"#utility.yul\":5245:5251   */\n      0x00\n        /* \"#utility.yul\":5279:5284   */\n      dup2\n        /* \"#utility.yul\":5273:5285   */\n      mload\n        /* \"#utility.yul\":5263:5285   */\n      swap1\n      pop\n        /* \"#utility.yul\":5193:5292   */\n      swap2\n      swap1\n      pop\n      jump\t// out\n        /* \"#utility.yul\":5298:5457   */\n    tag_111:\n        /* \"#utility.yul\":5372:5383   */\n      0x00\n        /* \"#utility.yul\":5406:5412   */\n      dup3\n        /* \"#utility.yul\":5401:5404   */\n      dup3\n        /* \"#utility.yul\":5394:5413   */\n      mstore\n        /* \"#utility.yul\":5446:5450   */\n      0x20\n        /* \"#utility.yul\":5441:5444   */\n      dup3\n        /* \"#utility.yul\":5437:5451   */\n      add\n        /* \"#utility.yul\":5422:5451   */\n      swap1\n      pop\n        /* \"#utility.yul\":5298:5457   */\n      swap3\n      swap2\n      pop\n      pop\n      jump\t// out\n        /* \"#utility.yul\":5463:5602   */\n    tag_112:\n        /* \"#utility.yul\":5552:5558   */\n      dup3\n        /* \"#utility.yul\":5547:5550   */\n      dup2\n        /* \"#utility.yul\":5542:5545   */\n      dup4\n        /* \"#utility.yul\":5536:5559   */\n      mcopy\n        /* \"#utility.yul\":5593:5594   */\n      0x00\n        /* \"#utility.yul\":5584:5590   */\n      dup4\n        /* \"#utility.yul\":5579:5582   */\n      dup4\n        /* \"#utility.yul\":5575:5591   */\n      add\n        /* \"#utility.yul\":5568:5595   */\n      mstore\n        /* \"#utility.yul\":5463:5602   */\n      pop\n      pop\n      pop\n      jump\t// out\n        /* \"#utility.yul\":5608:5965   */\n    tag_113:\n        /* \"#utility.yul\":5686:5689   */\n      0x00\n        /* \"#utility.yul\":5714:5753   */\n      tag_199\n        /* \"#utility.yul\":5747:5752   */\n      dup3\n        /* \"#utility.yul\":5714:5753   */\n      tag_110\n      jump\t// in\n    tag_199:\n        /* \"#utility.yul\":5769:5830   */\n      tag_200\n        /* \"#utility.yul\":5823:5829   */\n      dup2\n        /* \"#utility.yul\":5818:5821   */\n      dup6\n        /* \"#utility.yul\":5769:5830   */\n      tag_111\n      jump\t// in\n    tag_200:\n        /* \"#utility.yul\":5762:5830   */\n      swap4\n      pop\n        /* \"#utility.yul\":5839:5904   */\n      tag_201\n        /* \"#utility.yul\":5897:5903   */\n      dup2\n        /* \"#utility.yul\":5892:5895   */\n      dup6\n        /* \"#utility.yul\":5885:5889   */\n      0x20\n        /* \"#utility.yul\":5878:5883   */\n      dup7\n        /* \"#utility.yul\":5874:5890   */\n      add\n        /* \"#utility.yul\":5839:5904   */\n      tag_112\n      jump\t// in\n    tag_201:\n        /* \"#utility.yul\":5929:5958   */\n      tag_202\n        /* \"#utility.yul\":5951:5957   */\n      dup2\n        /* \"#utility.yul\":5929:5958   */\n      tag_96\n      jump\t// in\n    tag_202:\n        /* \"#utility.yul\":5924:5927   */\n      dup5\n        /* \"#utility.yul\":5920:5959   */\n      add\n        /* \"#utility.yul\":5913:5959   */\n      swap2\n      pop\n        /* \"#utility.yul\":5690:5965   */\n      pop\n        /* \"#utility.yul\":5608:5965   */\n      swap3\n      swap2\n      pop\n      pop\n      jump\t// out\n        /* \"#utility.yul\":5971:6079   */\n    tag_114:\n        /* \"#utility.yul\":6048:6072   */\n      tag_204\n        /* \"#utility.yul\":6066:6071   */\n      dup2\n        /* \"#utility.yul\":6048:6072   */\n      tag_104\n      jump\t// in\n    tag_204:\n        /* \"#utility.yul\":6043:6046   */\n      dup3\n        /* \"#utility.yul\":6036:6073   */\n      mstore\n        /* \"#utility.yul\":5971:6079   */\n      pop\n      pop\n      jump\t// out\n        /* \"#utility.yul\":6153:6757   */\n    tag_115:\n        /* \"#utility.yul\":6268:6271   */\n      0x00\n        /* \"#utility.yul\":6304:6308   */\n      0x40\n        /* \"#utility.yul\":6299:6302   */\n      dup4\n        /* \"#utility.yul\":6295:6309   */\n      add\n        /* \"#utility.yul\":6391:6395   */\n      0x00\n        /* \"#utility.yul\":6384:6389   */\n      dup4\n        /* \"#utility.yul\":6380:6396   */\n      add\n        /* \"#utility.yul\":6374:6397   */\n      mload\n        /* \"#utility.yul\":6444:6447   */\n      dup5\n        /* \"#utility.yul\":6438:6442   */\n      dup3\n        /* \"#utility.yul\":6434:6448   */\n      sub\n        /* \"#utility.yul\":6427:6431   */\n      0x00\n        /* \"#utility.yul\":6422:6425   */\n      dup7\n        /* \"#utility.yul\":6418:6432   */\n      add\n        /* \"#utility.yul\":6411:6449   */\n      mstore\n        /* \"#utility.yul\":6470:6543   */\n      tag_206\n        /* \"#utility.yul\":6538:6542   */\n      dup3\n        /* \"#utility.yul\":6524:6536   */\n      dup3\n        /* \"#utility.yul\":6470:6543   */\n      tag_113\n      jump\t// in\n    tag_206:\n        /* \"#utility.yul\":6462:6543   */\n      swap2\n      pop\n        /* \"#utility.yul\":6319:6554   */\n      pop\n        /* \"#utility.yul\":6638:6642   */\n      0x20\n        /* \"#utility.yul\":6631:6636   */\n      dup4\n        /* \"#utility.yul\":6627:6643   */\n      add\n        /* \"#utility.yul\":6621:6644   */\n      mload\n        /* \"#utility.yul\":6657:6720   */\n      tag_207\n        /* \"#utility.yul\":6714:6718   */\n      0x20\n        /* \"#utility.yul\":6709:6712   */\n      dup7\n        /* \"#utility.yul\":6705:6719   */\n      add\n        /* \"#utility.yul\":6691:6703   */\n      dup3\n        /* \"#utility.yul\":6657:6720   */\n      tag_114\n      jump\t// in\n    tag_207:\n        /* \"#utility.yul\":6564:6730   */\n      pop\n        /* \"#utility.yul\":6747:6751   */\n      dup1\n        /* \"#utility.yul\":6740:6751   */\n      swap2\n      pop\n        /* \"#utility.yul\":6273:6757   */\n      pop\n        /* \"#utility.yul\":6153:6757   */\n      swap3\n      swap2\n      pop\n      pop\n      jump\t// out\n        /* \"#utility.yul\":6763:7031   */\n    tag_116:\n        /* \"#utility.yul\":6888:6898   */\n      0x00\n        /* \"#utility.yul\":6923:7025   */\n      tag_209\n        /* \"#utility.yul\":7021:7024   */\n      dup4\n        /* \"#utility.yul\":7013:7019   */\n      dup4\n        /* \"#utility.yul\":6923:7025   */\n      tag_115\n      jump\t// in\n    tag_209:\n        /* \"#utility.yul\":6909:7025   */\n      swap1\n      pop\n        /* \"#utility.yul\":6763:7031   */\n      swap3\n      swap2\n      pop\n      pop\n      jump\t// out\n        /* \"#utility.yul\":7037:7178   */\n    tag_117:\n        /* \"#utility.yul\":7135:7139   */\n      0x00\n        /* \"#utility.yul\":7167:7171   */\n      0x20\n        /* \"#utility.yul\":7162:7165   */\n      dup3\n        /* \"#utility.yul\":7158:7172   */\n      add\n        /* \"#utility.yul\":7150:7172   */\n      swap1\n      pop\n        /* \"#utility.yul\":7037:7178   */\n      swap2\n      swap1\n      pop\n      jump\t// out\n        /* \"#utility.yul\":7256:8391   */\n    tag_118:\n        /* \"#utility.yul\":7431:7434   */\n      0x00\n        /* \"#utility.yul\":7460:7542   */\n      tag_212\n        /* \"#utility.yul\":7536:7541   */\n      dup3\n        /* \"#utility.yul\":7460:7542   */\n      tag_107\n      jump\t// in\n    tag_212:\n        /* \"#utility.yul\":7558:7672   */\n      tag_213\n        /* \"#utility.yul\":7665:7671   */\n      dup2\n        /* \"#utility.yul\":7660:7663   */\n      dup6\n        /* \"#utility.yul\":7558:7672   */\n      tag_108\n      jump\t// in\n    tag_213:\n        /* \"#utility.yul\":7551:7672   */\n      swap4\n      pop\n        /* \"#utility.yul\":7698:7701   */\n      dup4\n        /* \"#utility.yul\":7743:7747   */\n      0x20\n        /* \"#utility.yul\":7735:7741   */\n      dup3\n        /* \"#utility.yul\":7731:7748   */\n      mul\n        /* \"#utility.yul\":7726:7729   */\n      dup6\n        /* \"#utility.yul\":7722:7749   */\n      add\n        /* \"#utility.yul\":7773:7857   */\n      tag_214\n        /* \"#utility.yul\":7851:7856   */\n      dup6\n        /* \"#utility.yul\":7773:7857   */\n      tag_109\n      jump\t// in\n    tag_214:\n        /* \"#utility.yul\":7880:7887   */\n      dup1\n        /* \"#utility.yul\":7911:7912   */\n      0x00\n        /* \"#utility.yul\":7896:8346   */\n    tag_215:\n        /* \"#utility.yul\":7921:7927   */\n      dup6\n        /* \"#utility.yul\":7918:7919   */\n      dup2\n        /* \"#utility.yul\":7915:7928   */\n      lt\n        /* \"#utility.yul\":7896:8346   */\n      iszero\n      tag_217\n      jumpi\n        /* \"#utility.yul\":7992:8001   */\n      dup5\n        /* \"#utility.yul\":7986:7990   */\n      dup5\n        /* \"#utility.yul\":7982:8002   */\n      sub\n        /* \"#utility.yul\":7977:7980   */\n      dup10\n        /* \"#utility.yul\":7970:8003   */\n      mstore\n        /* \"#utility.yul\":8043:8049   */\n      dup2\n        /* \"#utility.yul\":8037:8050   */\n      mload\n        /* \"#utility.yul\":8071:8191   */\n      tag_218\n        /* \"#utility.yul\":8186:8190   */\n      dup6\n        /* \"#utility.yul\":8171:8184   */\n      dup3\n        /* \"#utility.yul\":8071:8191   */\n      tag_116\n      jump\t// in\n    tag_218:\n        /* \"#utility.yul\":8063:8191   */\n      swap5\n      pop\n        /* \"#utility.yul\":8214:8302   */\n      tag_219\n        /* \"#utility.yul\":8295:8301   */\n      dup4\n        /* \"#utility.yul\":8214:8302   */\n      tag_117\n      jump\t// in\n    tag_219:\n        /* \"#utility.yul\":8204:8302   */\n      swap3\n      pop\n        /* \"#utility.yul\":8331:8335   */\n      0x20\n        /* \"#utility.yul\":8326:8329   */\n      dup11\n        /* \"#utility.yul\":8322:8336   */\n      add\n        /* \"#utility.yul\":8315:8336   */\n      swap10\n      pop\n        /* \"#utility.yul\":7956:8346   */\n      pop\n        /* \"#utility.yul\":7943:7944   */\n      0x01\n        /* \"#utility.yul\":7940:7941   */\n      dup2\n        /* \"#utility.yul\":7936:7945   */\n      add\n        /* \"#utility.yul\":7931:7945   */\n      swap1\n      pop\n        /* \"#utility.yul\":7896:8346   */\n      jump(tag_215)\n    tag_217:\n        /* \"#utility.yul\":7900:7914   */\n      pop\n        /* \"#utility.yul\":8362:8366   */\n      dup3\n        /* \"#utility.yul\":8355:8366   */\n      swap8\n      pop\n        /* \"#utility.yul\":8382:8385   */\n      dup8\n        /* \"#utility.yul\":8375:8385   */\n      swap6\n      pop\n        /* \"#utility.yul\":7436:8391   */\n      pop\n      pop\n      pop\n      pop\n      pop\n        /* \"#utility.yul\":7256:8391   */\n      swap3\n      swap2\n      pop\n      pop\n      jump\t// out\n        /* \"#utility.yul\":8397:8882   */\n    tag_23:\n        /* \"#utility.yul\":8596:8600   */\n      0x00\n        /* \"#utility.yul\":8634:8636   */\n      0x20\n        /* \"#utility.yul\":8623:8632   */\n      dup3\n        /* \"#utility.yul\":8619:8637   */\n      add\n        /* \"#utility.yul\":8611:8637   */\n      swap1\n      pop\n        /* \"#utility.yul\":8683:8692   */\n      dup2\n        /* \"#utility.yul\":8677:8681   */\n      dup2\n        /* \"#utility.yul\":8673:8693   */\n      sub\n        /* \"#utility.yul\":8669:8670   */\n      0x00\n        /* \"#utility.yul\":8658:8667   */\n      dup4\n        /* \"#utility.yul\":8654:8671   */\n      add\n        /* \"#utility.yul\":8647:8694   */\n      mstore\n        /* \"#utility.yul\":8711:8875   */\n      tag_221\n        /* \"#utility.yul\":8870:8874   */\n      dup2\n        /* \"#utility.yul\":8861:8867   */\n      dup5\n        /* \"#utility.yul\":8711:8875   */\n      tag_118\n      jump\t// in\n    tag_221:\n        /* \"#utility.yul\":8703:8875   */\n      swap1\n      pop\n        /* \"#utility.yul\":8397:8882   */\n      swap3\n      swap2\n      pop\n      pop\n      jump\t// out\n        /* \"#utility.yul\":8888:9217   */\n    tag_27:\n        /* \"#utility.yul\":8947:8953   */\n      0x00\n        /* \"#utility.yul\":8996:8998   */\n      0x20\n        /* \"#utility.yul\":8984:8993   */\n      dup3\n        /* \"#utility.yul\":8975:8982   */\n      dup5\n        /* \"#utility.yul\":8971:8994   */\n      sub\n        /* \"#utility.yul\":8967:8999   */\n      slt\n        /* \"#utility.yul\":8964:9083   */\n      iszero\n      tag_223\n      jumpi\n        /* \"#utility.yul\":9002:9081   */\n      tag_224\n      tag_92\n      jump\t// in\n    tag_224:\n        /* \"#utility.yul\":8964:9083   */\n    tag_223:\n        /* \"#utility.yul\":9122:9123   */\n      0x00\n        /* \"#utility.yul\":9147:9200   */\n      tag_225\n        /* \"#utility.yul\":9192:9199   */\n      dup5\n        /* \"#utility.yul\":9183:9189   */\n      dup3\n        /* \"#utility.yul\":9172:9181   */\n      dup6\n        /* \"#utility.yul\":9168:9190   */\n      add\n        /* \"#utility.yul\":9147:9200   */\n      tag_106\n      jump\t// in\n    tag_225:\n        /* \"#utility.yul\":9137:9200   */\n      swap2\n      pop\n        /* \"#utility.yul\":9093:9210   */\n      pop\n        /* \"#utility.yul\":8888:9217   */\n      swap3\n      swap2\n      pop\n      pop\n      jump\t// out\n        /* \"#utility.yul\":9223:9600   */\n    tag_119:\n        /* \"#utility.yul\":9311:9314   */\n      0x00\n        /* \"#utility.yul\":9339:9378   */\n      tag_227\n        /* \"#utility.yul\":9372:9377   */\n      dup3\n        /* \"#utility.yul\":9339:9378   */\n      tag_110\n      jump\t// in\n    tag_227:\n        /* \"#utility.yul\":9394:9465   */\n      tag_228\n        /* \"#utility.yul\":9458:9464   */\n      dup2\n        /* \"#utility.yul\":9453:9456   */\n      dup6\n        /* \"#utility.yul\":9394:9465   */\n      tag_88\n      jump\t// in\n    tag_228:\n        /* \"#utility.yul\":9387:9465   */\n      swap4\n      pop\n        /* \"#utility.yul\":9474:9539   */\n      tag_229\n        /* \"#utility.yul\":9532:9538   */\n      dup2\n        /* \"#utility.yul\":9527:9530   */\n      dup6\n        /* \"#utility.yul\":9520:9524   */\n      0x20\n        /* \"#utility.yul\":9513:9518   */\n      dup7\n        /* \"#utility.yul\":9509:9525   */\n      add\n        /* \"#utility.yul\":9474:9539   */\n      tag_112\n      jump\t// in\n    tag_229:\n        /* \"#utility.yul\":9564:9593   */\n      tag_230\n        /* \"#utility.yul\":9586:9592   */\n      dup2\n        /* \"#utility.yul\":9564:9593   */\n      tag_96\n      jump\t// in\n    tag_230:\n        /* \"#utility.yul\":9559:9562   */\n      dup5\n        /* \"#utility.yul\":9555:9594   */\n      add\n        /* \"#utility.yul\":9548:9594   */\n      swap2\n      pop\n        /* \"#utility.yul\":9315:9600   */\n      pop\n        /* \"#utility.yul\":9223:9600   */\n      swap3\n      swap2\n      pop\n      pop\n      jump\t// out\n        /* \"#utility.yul\":9606:9724   */\n    tag_120:\n        /* \"#utility.yul\":9693:9717   */\n      tag_232\n        /* \"#utility.yul\":9711:9716   */\n      dup2\n        /* \"#utility.yul\":9693:9717   */\n      tag_104\n      jump\t// in\n    tag_232:\n        /* \"#utility.yul\":9688:9691   */\n      dup3\n        /* \"#utility.yul\":9681:9718   */\n      mstore\n        /* \"#utility.yul\":9606:9724   */\n      pop\n      pop\n      jump\t// out\n        /* \"#utility.yul\":9730:10153   */\n    tag_30:\n        /* \"#utility.yul\":9871:9875   */\n      0x00\n        /* \"#utility.yul\":9909:9911   */\n      0x40\n        /* \"#utility.yul\":9898:9907   */\n      dup3\n        /* \"#utility.yul\":9894:9912   */\n      add\n        /* \"#utility.yul\":9886:9912   */\n      swap1\n      pop\n        /* \"#utility.yul\":9958:9967   */\n      dup2\n        /* \"#utility.yul\":9952:9956   */\n      dup2\n        /* \"#utility.yul\":9948:9968   */\n      sub\n        /* \"#utility.yul\":9944:9945   */\n      0x00\n        /* \"#utility.yul\":9933:9942   */\n      dup4\n        /* \"#utility.yul\":9929:9946   */\n      add\n        /* \"#utility.yul\":9922:9969   */\n      mstore\n        /* \"#utility.yul\":9986:10064   */\n      tag_234\n        /* \"#utility.yul\":10059:10063   */\n      dup2\n        /* \"#utility.yul\":10050:10056   */\n      dup6\n        /* \"#utility.yul\":9986:10064   */\n      tag_119\n      jump\t// in\n    tag_234:\n        /* \"#utility.yul\":9978:10064   */\n      swap1\n      pop\n        /* \"#utility.yul\":10074:10146   */\n      tag_235\n        /* \"#utility.yul\":10142:10144   */\n      0x20\n        /* \"#utility.yul\":10131:10140   */\n      dup4\n        /* \"#utility.yul\":10127:10145   */\n      add\n        /* \"#utility.yul\":10118:10124   */\n      dup5\n        /* \"#utility.yul\":10074:10146   */\n      tag_120\n      jump\t// in\n    tag_235:\n        /* \"#utility.yul\":9730:10153   */\n      swap4\n      swap3\n      pop\n      pop\n      pop\n      jump\t// out\n        /* \"#utility.yul\":10159:10381   */\n    tag_35:\n        /* \"#utility.yul\":10252:10256   */\n      0x00\n        /* \"#utility.yul\":10290:10292   */\n      0x20\n        /* \"#utility.yul\":10279:10288   */\n      dup3\n        /* \"#utility.yul\":10275:10293   */\n      add\n        /* \"#utility.yul\":10267:10293   */\n      swap1\n      pop\n        /* \"#utility.yul\":10303:10374   */\n      tag_237\n        /* \"#utility.yul\":10371:10372   */\n      0x00\n        /* \"#utility.yul\":10360:10369   */\n      dup4\n        /* \"#utility.yul\":10356:10373   */\n      add\n        /* \"#utility.yul\":10347:10353   */\n      dup5\n        /* \"#utility.yul\":10303:10374   */\n      tag_120\n      jump\t// in\n    tag_237:\n        /* \"#utility.yul\":10159:10381   */\n      swap3\n      swap2\n      pop\n      pop\n      jump\t// out\n        /* \"#utility.yul\":10455:11069   */\n    tag_121:\n        /* \"#utility.yul\":10580:10583   */\n      0x00\n        /* \"#utility.yul\":10616:10620   */\n      0x40\n        /* \"#utility.yul\":10611:10614   */\n      dup4\n        /* \"#utility.yul\":10607:10621   */\n      add\n        /* \"#utility.yul\":10703:10707   */\n      0x00\n        /* \"#utility.yul\":10696:10701   */\n      dup4\n        /* \"#utility.yul\":10692:10708   */\n      add\n        /* \"#utility.yul\":10686:10709   */\n      mload\n        /* \"#utility.yul\":10756:10759   */\n      dup5\n        /* \"#utility.yul\":10750:10754   */\n      dup3\n        /* \"#utility.yul\":10746:10760   */\n      sub\n        /* \"#utility.yul\":10739:10743   */\n      0x00\n        /* \"#utility.yul\":10734:10737   */\n      dup7\n        /* \"#utility.yul\":10730:10744   */\n      add\n        /* \"#utility.yul\":10723:10761   */\n      mstore\n        /* \"#utility.yul\":10782:10855   */\n      tag_239\n        /* \"#utility.yul\":10850:10854   */\n      dup3\n        /* \"#utility.yul\":10836:10848   */\n      dup3\n        /* \"#utility.yul\":10782:10855   */\n      tag_113\n      jump\t// in\n    tag_239:\n        /* \"#utility.yul\":10774:10855   */\n      swap2\n      pop\n        /* \"#utility.yul\":10631:10866   */\n      pop\n        /* \"#utility.yul\":10950:10954   */\n      0x20\n        /* \"#utility.yul\":10943:10948   */\n      dup4\n        /* \"#utility.yul\":10939:10955   */\n      add\n        /* \"#utility.yul\":10933:10956   */\n      mload\n        /* \"#utility.yul\":10969:11032   */\n      tag_240\n        /* \"#utility.yul\":11026:11030   */\n      0x20\n        /* \"#utility.yul\":11021:11024   */\n      dup7\n        /* \"#utility.yul\":11017:11031   */\n      add\n        /* \"#utility.yul\":11003:11015   */\n      dup3\n        /* \"#utility.yul\":10969:11032   */\n      tag_114\n      jump\t// in\n    tag_240:\n        /* \"#utility.yul\":10876:11042   */\n      pop\n        /* \"#utility.yul\":11059:11063   */\n      dup1\n        /* \"#utility.yul\":11052:11063   */\n      swap2\n      pop\n        /* \"#utility.yul\":10585:11069   */\n      pop\n        /* \"#utility.yul\":10455:11069   */\n      swap3\n      swap2\n      pop\n      pop\n      jump\t// out\n        /* \"#utility.yul\":11075:11460   */\n    tag_41:\n        /* \"#utility.yul\":11224:11228   */\n      0x00\n        /* \"#utility.yul\":11262:11264   */\n      0x20\n        /* \"#utility.yul\":11251:11260   */\n      dup3\n        /* \"#utility.yul\":11247:11265   */\n      add\n        /* \"#utility.yul\":11239:11265   */\n      swap1\n      pop\n        /* \"#utility.yul\":11311:11320   */\n      dup2\n        /* \"#utility.yul\":11305:11309   */\n      dup2\n        /* \"#utility.yul\":11301:11321   */\n      sub\n        /* \"#utility.yul\":11297:11298   */\n      0x00\n        /* \"#utility.yul\":11286:11295   */\n      dup4\n        /* \"#utility.yul\":11282:11299   */\n      add\n        /* \"#utility.yul\":11275:11322   */\n      mstore\n        /* \"#utility.yul\":11339:11453   */\n      tag_242\n        /* \"#utility.yul\":11448:11452   */\n      dup2\n        /* \"#utility.yul\":11439:11445   */\n      dup5\n        /* \"#utility.yul\":11339:11453   */\n      tag_121\n      jump\t// in\n    tag_242:\n        /* \"#utility.yul\":11331:11453   */\n      swap1\n      pop\n        /* \"#utility.yul\":11075:11460   */\n      swap3\n      swap2\n      pop\n      pop\n      jump\t// out\n        /* \"#utility.yul\":11466:11646   */\n    tag_48:\n        /* \"#utility.yul\":11514:11591   */\n      0x4e487b7100000000000000000000000000000000000000000000000000000000\n        /* \"#utility.yul\":11511:11512   */\n      0x00\n        /* \"#utility.yul\":11504:11592   */\n      mstore\n        /* \"#utility.yul\":11611:11615   */\n      0x32\n        /* \"#utility.yul\":11608:11609   */\n      0x04\n        /* \"#utility.yul\":11601:11616   */\n      mstore\n        /* \"#utility.yul\":11635:11639   */\n      0x24\n        /* \"#utility.yul\":11632:11633   */\n      0x00\n        /* \"#utility.yul\":11625:11640   */\n      revert\n        /* \"#utility.yul\":11652:11876   */\n    tag_122:\n        /* \"#utility.yul\":11792:11826   */\n      0x53747564656e7420776974682074686973206e616d6520616c72656164792065\n        /* \"#utility.yul\":11788:11789   */\n      0x00\n        /* \"#utility.yul\":11780:11786   */\n      dup3\n        /* \"#utility.yul\":11776:11790   */\n      add\n        /* \"#utility.yul\":11769:11827   */\n      mstore\n        /* \"#utility.yul\":11861:11868   */\n      0x7869737473000000000000000000000000000000000000000000000000000000\n        /* \"#utility.yul\":11856:11858   */\n      0x20\n        /* \"#utility.yul\":11848:11854   */\n      dup3\n        /* \"#utility.yul\":11844:11859   */\n      add\n        /* \"#utility.yul\":11837:11869   */\n      mstore\n        /* \"#utility.yul\":11652:11876   */\n      pop\n      jump\t// out\n        /* \"#utility.yul\":11882:12248   */\n    tag_123:\n        /* \"#utility.yul\":12024:12027   */\n      0x00\n        /* \"#utility.yul\":12045:12112   */\n      tag_246\n        /* \"#utility.yul\":12109:12111   */\n      0x25\n        /* \"#utility.yul\":12104:12107   */\n      dup4\n        /* \"#utility.yul\":12045:12112   */\n      tag_88\n      jump\t// in\n    tag_246:\n        /* \"#utility.yul\":12038:12112   */\n      swap2\n      pop\n        /* \"#utility.yul\":12121:12214   */\n      tag_247\n        /* \"#utility.yul\":12210:12213   */\n      dup3\n        /* \"#utility.yul\":12121:12214   */\n      tag_122\n      jump\t// in\n    tag_247:\n        /* \"#utility.yul\":12239:12241   */\n      0x40\n        /* \"#utility.yul\":12234:12237   */\n      dup3\n        /* \"#utility.yul\":12230:12242   */\n      add\n        /* \"#utility.yul\":12223:12242   */\n      swap1\n      pop\n        /* \"#utility.yul\":11882:12248   */\n      swap2\n      swap1\n      pop\n      jump\t// out\n        /* \"#utility.yul\":12254:12673   */\n    tag_52:\n        /* \"#utility.yul\":12420:12424   */\n      0x00\n        /* \"#utility.yul\":12458:12460   */\n      0x20\n        /* \"#utility.yul\":12447:12456   */\n      dup3\n        /* \"#utility.yul\":12443:12461   */\n      add\n        /* \"#utility.yul\":12435:12461   */\n      swap1\n      pop\n        /* \"#utility.yul\":12507:12516   */\n      dup2\n        /* \"#utility.yul\":12501:12505   */\n      dup2\n        /* \"#utility.yul\":12497:12517   */\n      sub\n        /* \"#utility.yul\":12493:12494   */\n      0x00\n        /* \"#utility.yul\":12482:12491   */\n      dup4\n        /* \"#utility.yul\":12478:12495   */\n      add\n        /* \"#utility.yul\":12471:12518   */\n      mstore\n        /* \"#utility.yul\":12535:12666   */\n      tag_249\n        /* \"#utility.yul\":12661:12665   */\n      dup2\n        /* \"#utility.yul\":12535:12666   */\n      tag_123\n      jump\t// in\n    tag_249:\n        /* \"#utility.yul\":12527:12666   */\n      swap1\n      pop\n        /* \"#utility.yul\":12254:12673   */\n      swap2\n      swap1\n      pop\n      jump\t// out\n        /* \"#utility.yul\":12679:12859   */\n    tag_124:\n        /* \"#utility.yul\":12727:12804   */\n      0x4e487b7100000000000000000000000000000000000000000000000000000000\n        /* \"#utility.yul\":12724:12725   */\n      0x00\n        /* \"#utility.yul\":12717:12805   */\n      mstore\n        /* \"#utility.yul\":12824:12828   */\n      0x22\n        /* \"#utility.yul\":12821:12822   */\n      0x04\n        /* \"#utility.yul\":12814:12829   */\n      mstore\n        /* \"#utility.yul\":12848:12852   */\n      0x24\n        /* \"#utility.yul\":12845:12846   */\n      0x00\n        /* \"#utility.yul\":12838:12853   */\n      revert\n        /* \"#utility.yul\":12865:13185   */\n    tag_61:\n        /* \"#utility.yul\":12909:12915   */\n      0x00\n        /* \"#utility.yul\":12946:12947   */\n      0x02\n        /* \"#utility.yul\":12940:12944   */\n      dup3\n        /* \"#utility.yul\":12936:12948   */\n      div\n        /* \"#utility.yul\":12926:12948   */\n      swap1\n      pop\n        /* \"#utility.yul\":12993:12994   */\n      0x01\n        /* \"#utility.yul\":12987:12991   */\n      dup3\n        /* \"#utility.yul\":12983:12995   */\n      and\n        /* \"#utility.yul\":13014:13032   */\n      dup1\n        /* \"#utility.yul\":13004:13085   */\n      tag_252\n      jumpi\n        /* \"#utility.yul\":13070:13074   */\n      0x7f\n        /* \"#utility.yul\":13062:13068   */\n      dup3\n        /* \"#utility.yul\":13058:13075   */\n      and\n        /* \"#utility.yul\":13048:13075   */\n      swap2\n      pop\n        /* \"#utility.yul\":13004:13085   */\n    tag_252:\n        /* \"#utility.yul\":13132:13134   */\n      0x20\n        /* \"#utility.yul\":13124:13130   */\n      dup3\n        /* \"#utility.yul\":13121:13135   */\n      lt\n        /* \"#utility.yul\":13101:13119   */\n      dup2\n        /* \"#utility.yul\":13098:13136   */\n      sub\n        /* \"#utility.yul\":13095:13179   */\n      tag_253\n      jumpi\n        /* \"#utility.yul\":13151:13169   */\n      tag_254\n      tag_124\n      jump\t// in\n    tag_254:\n        /* \"#utility.yul\":13095:13179   */\n    tag_253:\n        /* \"#utility.yul\":12916:13185   */\n      pop\n        /* \"#utility.yul\":12865:13185   */\n      swap2\n      swap1\n      pop\n      jump\t// out\n        /* \"#utility.yul\":13191:13332   */\n    tag_125:\n        /* \"#utility.yul\":13240:13244   */\n      0x00\n        /* \"#utility.yul\":13263:13266   */\n      dup2\n        /* \"#utility.yul\":13255:13266   */\n      swap1\n      pop\n        /* \"#utility.yul\":13286:13289   */\n      dup2\n        /* \"#utility.yul\":13283:13284   */\n      0x00\n        /* \"#utility.yul\":13276:13290   */\n      mstore\n        /* \"#utility.yul\":13320:13324   */\n      0x20\n        /* \"#utility.yul\":13317:13318   */\n      0x00\n        /* \"#utility.yul\":13307:13325   */\n      keccak256\n        /* \"#utility.yul\":13299:13325   */\n      swap1\n      pop\n        /* \"#utility.yul\":13191:13332   */\n      swap2\n      swap1\n      pop\n      jump\t// out\n        /* \"#utility.yul\":13338:13431   */\n    tag_126:\n        /* \"#utility.yul\":13375:13381   */\n      0x00\n        /* \"#utility.yul\":13422:13424   */\n      0x20\n        /* \"#utility.yul\":13417:13419   */\n      0x1f\n        /* \"#utility.yul\":13410:13415   */\n      dup4\n        /* \"#utility.yul\":13406:13420   */\n      add\n        /* \"#utility.yul\":13402:13425   */\n      div\n        /* \"#utility.yul\":13392:13425   */\n      swap1\n      pop\n        /* \"#utility.yul\":13338:13431   */\n      swap2\n      swap1\n      pop\n      jump\t// out\n        /* \"#utility.yul\":13437:13544   */\n    tag_127:\n        /* \"#utility.yul\":13481:13489   */\n      0x00\n        /* \"#utility.yul\":13531:13536   */\n      dup3\n        /* \"#utility.yul\":13525:13529   */\n      dup3\n        /* \"#utility.yul\":13521:13537   */\n      shl\n        /* \"#utility.yul\":13500:13537   */\n      swap1\n      pop\n        /* \"#utility.yul\":13437:13544   */\n      swap3\n      swap2\n      pop\n      pop\n      jump\t// out\n        /* \"#utility.yul\":13550:13943   */\n    tag_128:\n        /* \"#utility.yul\":13619:13625   */\n      0x00\n        /* \"#utility.yul\":13669:13670   */\n      0x08\n        /* \"#utility.yul\":13657:13667   */\n      dup4\n        /* \"#utility.yul\":13653:13671   */\n      mul\n        /* \"#utility.yul\":13692:13789   */\n      tag_259\n        /* \"#utility.yul\":13722:13788   */\n      0xffffffffffffffffffffffffffffffffffffffffffffffffffffffffffffffff\n        /* \"#utility.yul\":13711:13720   */\n      dup3\n        /* \"#utility.yul\":13692:13789   */\n      tag_127\n      jump\t// in\n    tag_259:\n        /* \"#utility.yul\":13810:13849   */\n      tag_260\n        /* \"#utility.yul\":13840:13848   */\n      dup7\n        /* \"#utility.yul\":13829:13838   */\n      dup4\n        /* \"#utility.yul\":13810:13849   */\n      tag_127\n      jump\t// in\n    tag_260:\n        /* \"#utility.yul\":13798:13849   */\n      swap6\n      pop\n        /* \"#utility.yul\":13882:13886   */\n      dup1\n        /* \"#utility.yul\":13878:13887   */\n      not\n        /* \"#utility.yul\":13871:13876   */\n      dup5\n        /* \"#utility.yul\":13867:13888   */\n      and\n        /* \"#utility.yul\":13858:13888   */\n      swap4\n      pop\n        /* \"#utility.yul\":13931:13935   */\n      dup1\n        /* \"#utility.yul\":13921:13929   */\n      dup7\n        /* \"#utility.yul\":13917:13936   */\n      and\n        /* \"#utility.yul\":13910:13915   */\n      dup5\n        /* \"#utility.yul\":13907:13937   */\n      or\n        /* \"#utility.yul\":13897:13937   */\n      swap3\n      pop\n        /* \"#utility.yul\":13626:13943   */\n      pop\n      pop\n        /* \"#utility.yul\":13550:13943   */\n      swap4\n      swap3\n      pop\n      pop\n      pop\n      jump\t// out\n        /* \"#utility.yul\":13949:14009   */\n    tag_129:\n        /* \"#utility.yul\":13977:13980   */\n      0x00\n        /* \"#utility.yul\":13998:14003   */\n      dup2\n        /* \"#utility.yul\":13991:14003   */\n      swap1\n      pop\n        /* \"#utility.yul\":13949:14009   */\n      swap2\n      swap1\n      pop\n      jump\t// out\n        /* \"#utility.yul\":14015:14157   */\n    tag_130:\n        /* \"#utility.yul\":14065:14074   */\n      0x00\n        /* \"#utility.yul\":14098:14151   */\n      tag_263\n        /* \"#utility.yul\":14116:14150   */\n      tag_264\n        /* \"#utility.yul\":14125:14149   */\n      tag_265\n        /* \"#utility.yul\":14143:14148   */\n      dup5\n        /* \"#utility.yul\":14125:14149   */\n      tag_104\n      jump\t// in\n    tag_265:\n        /* \"#utility.yul\":14116:14150   */\n      tag_129\n      jump\t// in\n    tag_264:\n        /* \"#utility.yul\":14098:14151   */\n      tag_104\n      jump\t// in\n    tag_263:\n        /* \"#utility.yul\":14085:14151   */\n      swap1\n      pop\n        /* \"#utility.yul\":14015:14157   */\n      swap2\n      swap1\n      pop\n      jump\t// out\n        /* \"#utility.yul\":14163:14238   */\n    tag_131:\n        /* \"#utility.yul\":14206:14209   */\n      0x00\n        /* \"#utility.yul\":14227:14232   */\n      dup2\n        /* \"#utility.yul\":14220:14232   */\n      swap1\n      pop\n        /* \"#utility.yul\":14163:14238   */\n      swap2\n      swap1\n      pop\n      jump\t// out\n        /* \"#utility.yul\":14244:14513   */\n    tag_132:\n        /* \"#utility.yul\":14354:14393   */\n      tag_268\n        /* \"#utility.yul\":14385:14392   */\n      dup4\n        /* \"#utility.yul\":14354:14393   */\n      tag_130\n      jump\t// in\n    tag_268:\n        /* \"#utility.yul\":14415:14506   */\n      tag_269\n        /* \"#utility.yul\":14464:14505   */\n      tag_270\n        /* \"#utility.yul\":14488:14504   */\n      dup3\n        /* \"#utility.yul\":14464:14505   */\n      tag_131\n      jump\t// in\n    tag_270:\n        /* \"#utility.yul\":14456:14462   */\n      dup5\n        /* \"#utility.yul\":14449:14453   */\n      dup5\n        /* \"#utility.yul\":14443:14454   */\n      sload\n        /* \"#utility.yul\":14415:14506   */\n      tag_128\n      jump\t// in\n    tag_269:\n        /* \"#utility.yul\":14409:14413   */\n      dup3\n        /* \"#utility.yul\":14402:14507   */\n      sstore\n        /* \"#utility.yul\":14320:14513   */\n      pop\n        /* \"#utility.yul\":14244:14513   */\n      pop\n      pop\n      pop\n      jump\t// out\n        /* \"#utility.yul\":14519:14592   */\n    tag_133:\n        /* \"#utility.yul\":14564:14567   */\n      0x00\n        /* \"#utility.yul\":14585:14586   */\n      0x00\n        /* \"#utility.yul\":14578:14586   */\n      swap1\n      pop\n        /* \"#utility.yul\":14519:14592   */\n      swap1\n      jump\t// out\n        /* \"#utility.yul\":14598:14787   */\n    tag_134:\n        /* \"#utility.yul\":14675:14707   */\n      tag_273\n      tag_133\n      jump\t// in\n    tag_273:\n        /* \"#utility.yul\":14716:14781   */\n      tag_274\n        /* \"#utility.yul\":14774:14780   */\n      dup2\n        /* \"#utility.yul\":14766:14772   */\n      dup5\n        /* \"#utility.yul\":14760:14764   */\n      dup5\n        /* \"#utility.yul\":14716:14781   */\n      tag_132\n      jump\t// in\n    tag_274:\n        /* \"#utility.yul\":14651:14787   */\n      pop\n        /* \"#utility.yul\":14598:14787   */\n      pop\n      pop\n      jump\t// out\n        /* \"#utility.yul\":14793:14979   */\n    tag_135:\n        /* \"#utility.yul\":14853:14973   */\n    tag_276:\n        /* \"#utility.yul\":14870:14873   */\n      dup2\n        /* \"#utility.yul\":14863:14868   */\n      dup2\n        /* \"#utility.yul\":14860:14874   */\n      lt\n        /* \"#utility.yul\":14853:14973   */\n      iszero\n      tag_278\n      jumpi\n        /* \"#utility.yul\":14924:14963   */\n      tag_279\n        /* \"#utility.yul\":14961:14962   */\n      0x00\n        /* \"#utility.yul\":14954:14959   */\n      dup3\n        /* \"#utility.yul\":14924:14963   */\n      tag_134\n      jump\t// in\n    tag_279:\n        /* \"#utility.yul\":14897:14898   */\n      0x01\n        /* \"#utility.yul\":14890:14895   */\n      dup2\n        /* \"#utility.yul\":14886:14899   */\n      add\n        /* \"#utility.yul\":14877:14899   */\n      swap1\n      pop\n        /* \"#utility.yul\":14853:14973   */\n      jump(tag_276)\n    tag_278:\n        /* \"#utility.yul\":14793:14979   */\n      pop\n      pop\n      jump\t// out\n        /* \"#utility.yul\":14985:15528   */\n    tag_136:\n        /* \"#utility.yul\":15086:15088   */\n      0x1f\n        /* \"#utility.yul\":15081:15084   */\n      dup3\n        /* \"#utility.yul\":15078:15089   */\n      gt\n        /* \"#utility.yul\":15075:15521   */\n      iszero\n      tag_281\n      jumpi\n        /* \"#utility.yul\":15120:15158   */\n      tag_282\n        /* \"#utility.yul\":15152:15157   */\n      dup2\n        /* \"#utility.yul\":15120:15158   */\n      tag_125\n      jump\t// in\n    tag_282:\n        /* \"#utility.yul\":15204:15233   */\n      tag_283\n        /* \"#utility.yul\":15222:15232   */\n      dup5\n        /* \"#utility.yul\":15204:15233   */\n      tag_126\n      jump\t// in\n    tag_283:\n        /* \"#utility.yul\":15194:15202   */\n      dup2\n        /* \"#utility.yul\":15190:15234   */\n      add\n        /* \"#utility.yul\":15387:15389   */\n      0x20\n        /* \"#utility.yul\":15375:15385   */\n      dup6\n        /* \"#utility.yul\":15372:15390   */\n      lt\n        /* \"#utility.yul\":15369:15418   */\n      iszero\n      tag_284\n      jumpi\n        /* \"#utility.yul\":15408:15416   */\n      dup2\n        /* \"#utility.yul\":15393:15416   */\n      swap1\n      pop\n        /* \"#utility.yul\":15369:15418   */\n    tag_284:\n        /* \"#utility.yul\":15431:15511   */\n      tag_285\n        /* \"#utility.yul\":15487:15509   */\n      tag_286\n        /* \"#utility.yul\":15505:15508   */\n      dup6\n        /* \"#utility.yul\":15487:15509   */\n      tag_126\n      jump\t// in\n    tag_286:\n        /* \"#utility.yul\":15477:15485   */\n      dup4\n        /* \"#utility.yul\":15473:15510   */\n      add\n        /* \"#utility.yul\":15460:15471   */\n      dup3\n        /* \"#utility.yul\":15431:15511   */\n      tag_135\n      jump\t// in\n    tag_285:\n        /* \"#utility.yul\":15090:15521   */\n      pop\n      pop\n        /* \"#utility.yul\":15075:15521   */\n    tag_281:\n        /* \"#utility.yul\":14985:15528   */\n      pop\n      pop\n      pop\n      jump\t// out\n        /* \"#utility.yul\":15534:15651   */\n    tag_137:\n        /* \"#utility.yul\":15588:15596   */\n      0x00\n        /* \"#utility.yul\":15638:15643   */\n      dup3\n        /* \"#utility.yul\":15632:15636   */\n      dup3\n        /* \"#utility.yul\":15628:15644   */\n      shr\n        /* \"#utility.yul\":15607:15644   */\n      swap1\n      pop\n        /* \"#utility.yul\":15534:15651   */\n      swap3\n      swap2\n      pop\n      pop\n      jump\t// out\n        /* \"#utility.yul\":15657:15826   */\n    tag_138:\n        /* \"#utility.yul\":15701:15707   */\n      0x00\n        /* \"#utility.yul\":15734:15785   */\n      tag_289\n        /* \"#utility.yul\":15782:15783   */\n      0x00\n        /* \"#utility.yul\":15778:15784   */\n      not\n        /* \"#utility.yul\":15770:15775   */\n      dup5\n        /* \"#utility.yul\":15767:15768   */\n      0x08\n        /* \"#utility.yul\":15763:15776   */\n      mul\n        /* \"#utility.yul\":15734:15785   */\n      tag_137\n      jump\t// in\n    tag_289:\n        /* \"#utility.yul\":15730:15786   */\n      not\n        /* \"#utility.yul\":15815:15819   */\n      dup1\n        /* \"#utility.yul\":15809:15813   */\n      dup4\n        /* \"#utility.yul\":15805:15820   */\n      and\n        /* \"#utility.yul\":15795:15820   */\n      swap2\n      pop\n        /* \"#utility.yul\":15708:15826   */\n      pop\n        /* \"#utility.yul\":15657:15826   */\n      swap3\n      swap2\n      pop\n      pop\n      jump\t// out\n        /* \"#utility.yul\":15831:16126   */\n    tag_139:\n        /* \"#utility.yul\":15907:15911   */\n      0x00\n        /* \"#utility.yul\":16053:16082   */\n      tag_291\n        /* \"#utility.yul\":16078:16081   */\n      dup4\n        /* \"#utility.yul\":16072:16076   */\n      dup4\n        /* \"#utility.yul\":16053:16082   */\n      tag_138\n      jump\t// in\n    tag_291:\n        /* \"#utility.yul\":16045:16082   */\n      swap2\n      pop\n        /* \"#utility.yul\":16115:16118   */\n      dup3\n        /* \"#utility.yul\":16112:16113   */\n      0x02\n        /* \"#utility.yul\":16108:16119   */\n      mul\n        /* \"#utility.yul\":16102:16106   */\n      dup3\n        /* \"#utility.yul\":16099:16120   */\n      or\n        /* \"#utility.yul\":16091:16120   */\n      swap1\n      pop\n        /* \"#utility.yul\":15831:16126   */\n      swap3\n      swap2\n      pop\n      pop\n      jump\t// out\n        /* \"#utility.yul\":16131:17526   */\n    tag_55:\n        /* \"#utility.yul\":16248:16285   */\n      tag_293\n        /* \"#utility.yul\":16281:16284   */\n      dup3\n        /* \"#utility.yul\":16248:16285   */\n      tag_110\n      jump\t// in\n    tag_293:\n        /* \"#utility.yul\":16350:16368   */\n      0xffffffffffffffff\n        /* \"#utility.yul\":16342:16348   */\n      dup2\n        /* \"#utility.yul\":16339:16369   */\n      gt\n        /* \"#utility.yul\":16336:16392   */\n      iszero\n      tag_294\n      jumpi\n        /* \"#utility.yul\":16372:16390   */\n      tag_295\n      tag_97\n      jump\t// in\n    tag_295:\n        /* \"#utility.yul\":16336:16392   */\n    tag_294:\n        /* \"#utility.yul\":16416:16454   */\n      tag_296\n        /* \"#utility.yul\":16448:16452   */\n      dup3\n        /* \"#utility.yul\":16442:16453   */\n      sload\n        /* \"#utility.yul\":16416:16454   */\n      tag_61\n      jump\t// in\n    tag_296:\n        /* \"#utility.yul\":16501:16568   */\n      tag_297\n        /* \"#utility.yul\":16561:16567   */\n      dup3\n        /* \"#utility.yul\":16553:16559   */\n      dup3\n        /* \"#utility.yul\":16547:16551   */\n      dup6\n        /* \"#utility.yul\":16501:16568   */\n      tag_136\n      jump\t// in\n    tag_297:\n        /* \"#utility.yul\":16595:16596   */\n      0x00\n        /* \"#utility.yul\":16619:16623   */\n      0x20\n        /* \"#utility.yul\":16606:16623   */\n      swap1\n      pop\n        /* \"#utility.yul\":16651:16653   */\n      0x1f\n        /* \"#utility.yul\":16643:16649   */\n      dup4\n        /* \"#utility.yul\":16640:16654   */\n      gt\n        /* \"#utility.yul\":16668:16669   */\n      0x01\n        /* \"#utility.yul\":16663:17281   */\n      dup2\n      eq\n      tag_299\n      jumpi\n        /* \"#utility.yul\":17325:17326   */\n      0x00\n        /* \"#utility.yul\":17342:17348   */\n      dup5\n        /* \"#utility.yul\":17339:17416   */\n      iszero\n      tag_300\n      jumpi\n        /* \"#utility.yul\":17391:17400   */\n      dup3\n        /* \"#utility.yul\":17386:17389   */\n      dup8\n        /* \"#utility.yul\":17382:17401   */\n      add\n        /* \"#utility.yul\":17376:17402   */\n      mload\n        /* \"#utility.yul\":17367:17402   */\n      swap1\n      pop\n        /* \"#utility.yul\":17339:17416   */\n    tag_300:\n        /* \"#utility.yul\":17442:17509   */\n      tag_301\n        /* \"#utility.yul\":17502:17508   */\n      dup6\n        /* \"#utility.yul\":17495:17500   */\n      dup3\n        /* \"#utility.yul\":17442:17509   */\n      tag_139\n      jump\t// in\n    tag_301:\n        /* \"#utility.yul\":17436:17440   */\n      dup7\n        /* \"#utility.yul\":17429:17510   */\n      sstore\n        /* \"#utility.yul\":17298:17520   */\n      pop\n        /* \"#utility.yul\":16633:17520   */\n      jump(tag_298)\n        /* \"#utility.yul\":16663:17281   */\n    tag_299:\n        /* \"#utility.yul\":16715:16719   */\n      0x1f\n        /* \"#utility.yul\":16711:16720   */\n      not\n        /* \"#utility.yul\":16703:16709   */\n      dup5\n        /* \"#utility.yul\":16699:16721   */\n      and\n        /* \"#utility.yul\":16749:16786   */\n      tag_302\n        /* \"#utility.yul\":16781:16785   */\n      dup7\n        /* \"#utility.yul\":16749:16786   */\n      tag_125\n      jump\t// in\n    tag_302:\n        /* \"#utility.yul\":16808:16809   */\n      0x00\n        /* \"#utility.yul\":16822:17030   */\n    tag_303:\n        /* \"#utility.yul\":16836:16843   */\n      dup3\n        /* \"#utility.yul\":16833:16834   */\n      dup2\n        /* \"#utility.yul\":16830:16844   */\n      lt\n        /* \"#utility.yul\":16822:17030   */\n      iszero\n      tag_305\n      jumpi\n        /* \"#utility.yul\":16915:16924   */\n      dup5\n        /* \"#utility.yul\":16910:16913   */\n      dup10\n        /* \"#utility.yul\":16906:16925   */\n      add\n        /* \"#utility.yul\":16900:16926   */\n      mload\n        /* \"#utility.yul\":16892:16898   */\n      dup3\n        /* \"#utility.yul\":16885:16927   */\n      sstore\n        /* \"#utility.yul\":16966:16967   */\n      0x01\n        /* \"#utility.yul\":16958:16964   */\n      dup3\n        /* \"#utility.yul\":16954:16968   */\n      add\n        /* \"#utility.yul\":16944:16968   */\n      swap2\n      pop\n        /* \"#utility.yul\":17013:17015   */\n      0x20\n        /* \"#utility.yul\":17002:17011   */\n      dup6\n        /* \"#utility.yul\":16998:17016   */\n      add\n        /* \"#utility.yul\":16985:17016   */\n      swap5\n      pop\n        /* \"#utility.yul\":16859:16863   */\n      0x20\n        /* \"#utility.yul\":16856:16857   */\n      dup2\n        /* \"#utility.yul\":16852:16864   */\n      add\n        /* \"#utility.yul\":16847:16864   */\n      swap1\n      pop\n        /* \"#utility.yul\":16822:17030   */\n      jump(tag_303)\n    tag_305:\n        /* \"#utility.yul\":17058:17064   */\n      dup7\n        /* \"#utility.yul\":17049:17056   */\n      dup4\n        /* \"#utility.yul\":17046:17065   */\n      lt\n        /* \"#utility.yul\":17043:17222   */\n      iszero\n      tag_306\n      jumpi\n        /* \"#utility.yul\":17116:17125   */\n      dup5\n        /* \"#utility.yul\":17111:17114   */\n      dup10\n        /* \"#utility.yul\":17107:17126   */\n      add\n        /* \"#utility.yul\":17101:17127   */\n      mload\n        /* \"#utility.yul\":17159:17207   */\n      tag_307\n        /* \"#utility.yul\":17201:17205   */\n      0x1f\n        /* \"#utility.yul\":17193:17199   */\n      dup10\n        /* \"#utility.yul\":17189:17206   */\n      and\n        /* \"#utility.yul\":17178:17187   */\n      dup3\n        /* \"#utility.yul\":17159:17207   */\n      tag_138\n      jump\t// in\n    tag_307:\n        /* \"#utility.yul\":17151:17157   */\n      dup4\n        /* \"#utility.yul\":17144:17208   */\n      sstore\n        /* \"#utility.yul\":17066:17222   */\n      pop\n        /* \"#utility.yul\":17043:17222   */\n    tag_306:\n        /* \"#utility.yul\":17268:17269   */\n      0x01\n        /* \"#utility.yul\":17264:17265   */\n      0x02\n        /* \"#utility.yul\":17256:17262   */\n      dup9\n        /* \"#utility.yul\":17252:17266   */\n      mul\n        /* \"#utility.yul\":17248:17270   */\n      add\n        /* \"#utility.yul\":17242:17246   */\n      dup9\n        /* \"#utility.yul\":17235:17271   */\n      sstore\n        /* \"#utility.yul\":16670:17281   */\n      pop\n      pop\n      pop\n        /* \"#utility.yul\":16633:17520   */\n    tag_298:\n      pop\n        /* \"#utility.yul\":16223:17526   */\n      pop\n      pop\n      pop\n        /* \"#utility.yul\":16131:17526   */\n      pop\n      pop\n      jump\t// out\n        /* \"#utility.yul\":17532:17700   */\n    tag_140:\n        /* \"#utility.yul\":17672:17692   */\n      0x496e646578206f7574206f6620626f756e640000000000000000000000000000\n        /* \"#utility.yul\":17668:17669   */\n      0x00\n        /* \"#utility.yul\":17660:17666   */\n      dup3\n        /* \"#utility.yul\":17656:17670   */\n      add\n        /* \"#utility.yul\":17649:17693   */\n      mstore\n        /* \"#utility.yul\":17532:17700   */\n      pop\n      jump\t// out\n        /* \"#utility.yul\":17706:18072   */\n    tag_141:\n        /* \"#utility.yul\":17848:17851   */\n      0x00\n        /* \"#utility.yul\":17869:17936   */\n      tag_310\n        /* \"#utility.yul\":17933:17935   */\n      0x12\n        /* \"#utility.yul\":17928:17931   */\n      dup4\n        /* \"#utility.yul\":17869:17936   */\n      tag_88\n      jump\t// in\n    tag_310:\n        /* \"#utility.yul\":17862:17936   */\n      swap2\n      pop\n        /* \"#utility.yul\":17945:18038   */\n      tag_311\n        /* \"#utility.yul\":18034:18037   */\n      dup3\n        /* \"#utility.yul\":17945:18038   */\n      tag_140\n      jump\t// in\n    tag_311:\n        /* \"#utility.yul\":18063:18065   */\n      0x20\n        /* \"#utility.yul\":18058:18061   */\n      dup3\n        /* \"#utility.yul\":18054:18066   */\n      add\n        /* \"#utility.yul\":18047:18066   */\n      swap1\n      pop\n        /* \"#utility.yul\":17706:18072   */\n      swap2\n      swap1\n      pop\n      jump\t// out\n        /* \"#utility.yul\":18078:18497   */\n    tag_79:\n        /* \"#utility.yul\":18244:18248   */\n      0x00\n        /* \"#utility.yul\":18282:18284   */\n      0x20\n        /* \"#utility.yul\":18271:18280   */\n      dup3\n        /* \"#utility.yul\":18267:18285   */\n      add\n        /* \"#utility.yul\":18259:18285   */\n      swap1\n      pop\n        /* \"#utility.yul\":18331:18340   */\n      dup2\n        /* \"#utility.yul\":18325:18329   */\n      dup2\n        /* \"#utility.yul\":18321:18341   */\n      sub\n        /* \"#utility.yul\":18317:18318   */\n      0x00\n        /* \"#utility.yul\":18306:18315   */\n      dup4\n        /* \"#utility.yul\":18302:18319   */\n      add\n        /* \"#utility.yul\":18295:18342   */\n      mstore\n        /* \"#utility.yul\":18359:18490   */\n      tag_313\n        /* \"#utility.yul\":18485:18489   */\n      dup2\n        /* \"#utility.yul\":18359:18490   */\n      tag_141\n      jump\t// in\n    tag_313:\n        /* \"#utility.yul\":18351:18490   */\n      swap1\n      pop\n        /* \"#utility.yul\":18078:18497   */\n      swap2\n      swap1\n      pop\n      jump\t// out\n\n    auxdata: 0xa264697066735822122015f3c19667460b5cc0cb250323ff926d812a6ec20722ddb6385e67b6718bef0f64736f6c634300081e0033\n}\n",
				"bytecode": {
					"linkReferences": {},
					"object": "6080604052348015600e575f5ffd5b50610e328061001c5f395ff3fe60806040526004361061004d575f3560e01c80630e5eeef71461008f5780634c9beb53146100b7578063811197c1146100e1578063d623bdd11461011e578063dc78302b1461014857610054565b3661005457005b6040517f08c379a00000000000000000000000000000000000000000000000000000000081526004016100869061057e565b60405180910390fd5b34801561009a575f5ffd5b506100b560048036038101906100b0919061071c565b610184565b005b3480156100c2575f5ffd5b506100cb610267565b6040516100d891906108da565b60405180910390f35b3480156100ec575f5ffd5b50610107600480360381019061010291906108fa565b61035b565b60405161011592919061096c565b60405180910390f35b348015610129575f5ffd5b5061013261040f565b60405161013f919061099a565b60405180910390f35b348015610153575f5ffd5b5061016e600480360381019061016991906108fa565b61041a565b60405161017b91906109ed565b60405180910390f35b5f5f90505b5f8054905081101561020657815f82815481106101a9576101a8610a0d565b5b905f5260205f20906002020160010154036101f9576040517f08c379a00000000000000000000000000000000000000000000000000000000081526004016101f090610aaa565b60405180910390fd5b8080600101915050610189565b505f604051806040016040528084815260200183815250908060018154018082558091505060019003905f5260205f2090600202015f909190919091505f820151815f0190816102569190610cc5565b506020820151816001015550505050565b60605f805480602002602001604051908101604052809291908181526020015f905b82821015610352578382905f5260205f2090600202016040518060400160405290815f820180546102b990610af5565b80601f01602080910402602001604051908101604052809291908181526020018280546102e590610af5565b80156103305780601f1061030757610100808354040283529160200191610330565b820191905f5260205f20905b81548152906001019060200180831161031357829003601f168201915b5050505050815260200160018201548152505081526020019060010190610289565b50505050905090565b5f8181548110610369575f80fd5b905f5260205f2090600202015f91509050805f01805461038890610af5565b80601f01602080910402602001604051908101604052809291908181526020018280546103b490610af5565b80156103ff5780601f106103d6576101008083540402835291602001916103ff565b820191905f5260205f20905b8154815290600101906020018083116103e257829003601f168201915b5050505050908060010154905082565b5f5f80549050905090565b610422610532565b5f805490508210610468576040517f08c379a000000000000000000000000000000000000000000000000000000000815260040161045f90610dde565b60405180910390fd5b5f828154811061047b5761047a610a0d565b5b905f5260205f2090600202016040518060400160405290815f820180546104a190610af5565b80601f01602080910402602001604051908101604052809291908181526020018280546104cd90610af5565b80156105185780601f106104ef57610100808354040283529160200191610518565b820191905f5260205f20905b8154815290600101906020018083116104fb57829003601f168201915b505050505081526020016001820154815250509050919050565b6040518060400160405280606081526020015f81525090565b5f82825260208201905092915050565b50565b5f6105695f8361054b565b91506105748261055b565b5f82019050919050565b5f6020820190508181035f8301526105958161055e565b9050919050565b5f604051905090565b5f5ffd5b5f5ffd5b5f5ffd5b5f5ffd5b5f601f19601f8301169050919050565b7f4e487b71000000000000000000000000000000000000000000000000000000005f52604160045260245ffd5b6105fb826105b5565b810181811067ffffffffffffffff8211171561061a576106196105c5565b5b80604052505050565b5f61062c61059c565b905061063882826105f2565b919050565b5f67ffffffffffffffff821115610657576106566105c5565b5b610660826105b5565b9050602081019050919050565b828183375f83830152505050565b5f61068d6106888461063d565b610623565b9050828152602081018484840111156106a9576106a86105b1565b5b6106b484828561066d565b509392505050565b5f82601f8301126106d0576106cf6105ad565b5b81356106e084826020860161067b565b91505092915050565b5f819050919050565b6106fb816106e9565b8114610705575f5ffd5b50565b5f81359050610716816106f2565b92915050565b5f5f60408385031215610732576107316105a5565b5b5f83013567ffffffffffffffff81111561074f5761074e6105a9565b5b61075b858286016106bc565b925050602061076c85828601610708565b9150509250929050565b5f81519050919050565b5f82825260208201905092915050565b5f819050602082019050919050565b5f81519050919050565b5f82825260208201905092915050565b8281835e5f83830152505050565b5f6107d18261079f565b6107db81856107a9565b93506107eb8185602086016107b9565b6107f4816105b5565b840191505092915050565b610808816106e9565b82525050565b5f604083015f8301518482035f86015261082882826107c7565b915050602083015161083d60208601826107ff565b508091505092915050565b5f610853838361080e565b905092915050565b5f602082019050919050565b5f61087182610776565b61087b8185610780565b93508360208202850161088d85610790565b805f5b858110156108c857848403895281516108a98582610848565b94506108b48361085b565b925060208a01995050600181019050610890565b50829750879550505050505092915050565b5f6020820190508181035f8301526108f28184610867565b905092915050565b5f6020828403121561090f5761090e6105a5565b5b5f61091c84828501610708565b91505092915050565b5f61092f8261079f565b610939818561054b565b93506109498185602086016107b9565b610952816105b5565b840191505092915050565b610966816106e9565b82525050565b5f6040820190508181035f8301526109848185610925565b9050610993602083018461095d565b9392505050565b5f6020820190506109ad5f83018461095d565b92915050565b5f604083015f8301518482035f8601526109cd82826107c7565b91505060208301516109e260208601826107ff565b508091505092915050565b5f6020820190508181035f830152610a0581846109b3565b905092915050565b7f4e487b71000000000000000000000000000000000000000000000000000000005f52603260045260245ffd5b7f53747564656e7420776974682074686973206e616d6520616c726561647920655f8201527f7869737473000000000000000000000000000000000000000000000000000000602082015250565b5f610a9460258361054b565b9150610a9f82610a3a565b604082019050919050565b5f6020820190508181035f830152610ac181610a88565b9050919050565b7f4e487b71000000000000000000000000000000000000000000000000000000005f52602260045260245ffd5b5f6002820490506001821680610b0c57607f821691505b602082108103610b1f57610b1e610ac8565b5b50919050565b5f819050815f5260205f209050919050565b5f6020601f8301049050919050565b5f82821b905092915050565b5f60088302610b817fffffffffffffffffffffffffffffffffffffffffffffffffffffffffffffffff82610b46565b610b8b8683610b46565b95508019841693508086168417925050509392505050565b5f819050919050565b5f610bc6610bc1610bbc846106e9565b610ba3565b6106e9565b9050919050565b5f819050919050565b610bdf83610bac565b610bf3610beb82610bcd565b848454610b52565b825550505050565b5f5f905090565b610c0a610bfb565b610c15818484610bd6565b505050565b5b81811015610c3857610c2d5f82610c02565b600181019050610c1b565b5050565b601f821115610c7d57610c4e81610b25565b610c5784610b37565b81016020851015610c66578190505b610c7a610c7285610b37565b830182610c1a565b50505b505050565b5f82821c905092915050565b5f610c9d5f1984600802610c82565b1980831691505092915050565b5f610cb58383610c8e565b9150826002028217905092915050565b610cce8261079f565b67ffffffffffffffff811115610ce757610ce66105c5565b5b610cf18254610af5565b610cfc828285610c3c565b5f60209050601f831160018114610d2d575f8415610d1b578287015190505b610d258582610caa565b865550610d8c565b601f198416610d3b86610b25565b5f5b82811015610d6257848901518255600182019150602085019450602081019050610d3d565b86831015610d7f5784890151610d7b601f891682610c8e565b8355505b6001600288020188555050505b505050505050565b7f496e646578206f7574206f6620626f756e6400000000000000000000000000005f82015250565b5f610dc860128361054b565b9150610dd382610d94565b602082019050919050565b5f6020820190508181035f830152610df581610dbc565b905091905056fea264697066735822122015f3c19667460b5cc0cb250323ff926d812a6ec20722ddb6385e67b6718bef0f64736f6c634300081e0033",
					"opcodes": "PUSH1 0x80 PUSH1 0x40 MSTORE CALLVALUE DUP1 ISZERO PUSH1 0xE JUMPI PUSH0 PUSH0 REVERT JUMPDEST POP PUSH2 0xE32 DUP1 PUSH2 0x1C PUSH0 CODECOPY PUSH0 RETURN INVALID PUSH1 0x80 PUSH1 0x40 MSTORE PUSH1 0x4 CALLDATASIZE LT PUSH2 0x4D JUMPI PUSH0 CALLDATALOAD PUSH1 0xE0 SHR DUP1 PUSH4 0xE5EEEF7 EQ PUSH2 0x8F JUMPI DUP1 PUSH4 0x4C9BEB53 EQ PUSH2 0xB7 JUMPI DUP1 PUSH4 0x811197C1 EQ PUSH2 0xE1 JUMPI DUP1 PUSH4 0xD623BDD1 EQ PUSH2 0x11E JUMPI DUP1 PUSH4 0xDC78302B EQ PUSH2 0x148 JUMPI PUSH2 0x54 JUMP JUMPDEST CALLDATASIZE PUSH2 0x54 JUMPI STOP JUMPDEST PUSH1 0x40 MLOAD PUSH32 0x8C379A000000000000000000000000000000000000000000000000000000000 DUP2 MSTORE PUSH1 0x4 ADD PUSH2 0x86 SWAP1 PUSH2 0x57E JUMP JUMPDEST PUSH1 0x40 MLOAD DUP1 SWAP2 SUB SWAP1 REVERT JUMPDEST CALLVALUE DUP1 ISZERO PUSH2 0x9A JUMPI PUSH0 PUSH0 REVERT JUMPDEST POP PUSH2 0xB5 PUSH1 0x4 DUP1 CALLDATASIZE SUB DUP2 ADD SWAP1 PUSH2 0xB0 SWAP2 SWAP1 PUSH2 0x71C JUMP JUMPDEST PUSH2 0x184 JUMP JUMPDEST STOP JUMPDEST CALLVALUE DUP1 ISZERO PUSH2 0xC2 JUMPI PUSH0 PUSH0 REVERT JUMPDEST POP PUSH2 0xCB PUSH2 0x267 JUMP JUMPDEST PUSH1 0x40 MLOAD PUSH2 0xD8 SWAP2 SWAP1 PUSH2 0x8DA JUMP JUMPDEST PUSH1 0x40 MLOAD DUP1 SWAP2 SUB SWAP1 RETURN JUMPDEST CALLVALUE DUP1 ISZERO PUSH2 0xEC JUMPI PUSH0 PUSH0 REVERT JUMPDEST POP PUSH2 0x107 PUSH1 0x4 DUP1 CALLDATASIZE SUB DUP2 ADD SWAP1 PUSH2 0x102 SWAP2 SWAP1 PUSH2 0x8FA JUMP JUMPDEST PUSH2 0x35B JUMP JUMPDEST PUSH1 0x40 MLOAD PUSH2 0x115 SWAP3 SWAP2 SWAP1 PUSH2 0x96C JUMP JUMPDEST PUSH1 0x40 MLOAD DUP1 SWAP2 SUB SWAP1 RETURN JUMPDEST CALLVALUE DUP1 ISZERO PUSH2 0x129 JUMPI PUSH0 PUSH0 REVERT JUMPDEST POP PUSH2 0x132 PUSH2 0x40F JUMP JUMPDEST PUSH1 0x40 MLOAD PUSH2 0x13F SWAP2 SWAP1 PUSH2 0x99A JUMP JUMPDEST PUSH1 0x40 MLOAD DUP1 SWAP2 SUB SWAP1 RETURN JUMPDEST CALLVALUE DUP1 ISZERO PUSH2 0x153 JUMPI PUSH0 PUSH0 REVERT JUMPDEST POP PUSH2 0x16E PUSH1 0x4 DUP1 CALLDATASIZE SUB DUP2 ADD SWAP1 PUSH2 0x169 SWAP2 SWAP1 PUSH2 0x8FA JUMP JUMPDEST PUSH2 0x41A JUMP JUMPDEST PUSH1 0x40 MLOAD PUSH2 0x17B SWAP2 SWAP1 PUSH2 0x9ED JUMP JUMPDEST PUSH1 0x40 MLOAD DUP1 SWAP2 SUB SWAP1 RETURN JUMPDEST PUSH0 PUSH0 SWAP1 POP JUMPDEST PUSH0 DUP1 SLOAD SWAP1 POP DUP2 LT ISZERO PUSH2 0x206 JUMPI DUP2 PUSH0 DUP3 DUP2 SLOAD DUP2 LT PUSH2 0x1A9 JUMPI PUSH2 0x1A8 PUSH2 0xA0D JUMP JUMPDEST JUMPDEST SWAP1 PUSH0 MSTORE PUSH1 0x20 PUSH0 KECCAK256 SWAP1 PUSH1 0x2 MUL ADD PUSH1 0x1 ADD SLOAD SUB PUSH2 0x1F9 JUMPI PUSH1 0x40 MLOAD PUSH32 0x8C379A000000000000000000000000000000000000000000000000000000000 DUP2 MSTORE PUSH1 0x4 ADD PUSH2 0x1F0 SWAP1 PUSH2 0xAAA JUMP JUMPDEST PUSH1 0x40 MLOAD DUP1 SWAP2 SUB SWAP1 REVERT JUMPDEST DUP1 DUP1 PUSH1 0x1 ADD SWAP2 POP POP PUSH2 0x189 JUMP JUMPDEST POP PUSH0 PUSH1 0x40 MLOAD DUP1 PUSH1 0x40 ADD PUSH1 0x40 MSTORE DUP1 DUP5 DUP2 MSTORE PUSH1 0x20 ADD DUP4 DUP2 MSTORE POP SWAP1 DUP1 PUSH1 0x1 DUP2 SLOAD ADD DUP1 DUP3 SSTORE DUP1 SWAP2 POP POP PUSH1 0x1 SWAP1 SUB SWAP1 PUSH0 MSTORE PUSH1 0x20 PUSH0 KECCAK256 SWAP1 PUSH1 0x2 MUL ADD PUSH0 SWAP1 SWAP2 SWAP1 SWAP2 SWAP1 SWAP2 POP PUSH0 DUP3 ADD MLOAD DUP2 PUSH0 ADD SWAP1 DUP2 PUSH2 0x256 SWAP2 SWAP1 PUSH2 0xCC5 JUMP JUMPDEST POP PUSH1 0x20 DUP3 ADD MLOAD DUP2 PUSH1 0x1 ADD SSTORE POP POP POP POP JUMP JUMPDEST PUSH1 0x60 PUSH0 DUP1 SLOAD DUP1 PUSH1 0x20 MUL PUSH1 0x20 ADD PUSH1 0x40 MLOAD SWAP1 DUP2 ADD PUSH1 0x40 MSTORE DUP1 SWAP3 SWAP2 SWAP1 DUP2 DUP2 MSTORE PUSH1 0x20 ADD PUSH0 SWAP1 JUMPDEST DUP3 DUP3 LT ISZERO PUSH2 0x352 JUMPI DUP4 DUP3 SWAP1 PUSH0 MSTORE PUSH1 0x20 PUSH0 KECCAK256 SWAP1 PUSH1 0x2 MUL ADD PUSH1 0x40 MLOAD DUP1 PUSH1 0x40 ADD PUSH1 0x40 MSTORE SWAP1 DUP2 PUSH0 DUP3 ADD DUP1 SLOAD PUSH2 0x2B9 SWAP1 PUSH2 0xAF5 JUMP JUMPDEST DUP1 PUSH1 0x1F ADD PUSH1 0x20 DUP1 SWAP2 DIV MUL PUSH1 0x20 ADD PUSH1 0x40 MLOAD SWAP1 DUP2 ADD PUSH1 0x40 MSTORE DUP1 SWAP3 SWAP2 SWAP1 DUP2 DUP2 MSTORE PUSH1 0x20 ADD DUP3 DUP1 SLOAD PUSH2 0x2E5 SWAP1 PUSH2 0xAF5 JUMP JUMPDEST DUP1 ISZERO PUSH2 0x330 JUMPI DUP1 PUSH1 0x1F LT PUSH2 0x307 JUMPI PUSH2 0x100 DUP1 DUP4 SLOAD DIV MUL DUP4 MSTORE SWAP2 PUSH1 0x20 ADD SWAP2 PUSH2 0x330 JUMP JUMPDEST DUP3 ADD SWAP2 SWAP1 PUSH0 MSTORE PUSH1 0x20 PUSH0 KECCAK256 SWAP1 JUMPDEST DUP2 SLOAD DUP2 MSTORE SWAP1 PUSH1 0x1 ADD SWAP1 PUSH1 0x20 ADD DUP1 DUP4 GT PUSH2 0x313 JUMPI DUP3 SWAP1 SUB PUSH1 0x1F AND DUP3 ADD SWAP2 JUMPDEST POP POP POP POP POP DUP2 MSTORE PUSH1 0x20 ADD PUSH1 0x1 DUP3 ADD SLOAD DUP2 MSTORE POP POP DUP2 MSTORE PUSH1 0x20 ADD SWAP1 PUSH1 0x1 ADD SWAP1 PUSH2 0x289 JUMP JUMPDEST POP POP POP POP SWAP1 POP SWAP1 JUMP JUMPDEST PUSH0 DUP2 DUP2 SLOAD DUP2 LT PUSH2 0x369 JUMPI PUSH0 DUP1 REVERT JUMPDEST SWAP1 PUSH0 MSTORE PUSH1 0x20 PUSH0 KECCAK256 SWAP1 PUSH1 0x2 MUL ADD PUSH0 SWAP2 POP SWAP1 POP DUP1 PUSH0 ADD DUP1 SLOAD PUSH2 0x388 SWAP1 PUSH2 0xAF5 JUMP JUMPDEST DUP1 PUSH1 0x1F ADD PUSH1 0x20 DUP1 SWAP2 DIV MUL PUSH1 0x20 ADD PUSH1 0x40 MLOAD SWAP1 DUP2 ADD PUSH1 0x40 MSTORE DUP1 SWAP3 SWAP2 SWAP1 DUP2 DUP2 MSTORE PUSH1 0x20 ADD DUP3 DUP1 SLOAD PUSH2 0x3B4 SWAP1 PUSH2 0xAF5 JUMP JUMPDEST DUP1 ISZERO PUSH2 0x3FF JUMPI DUP1 PUSH1 0x1F LT PUSH2 0x3D6 JUMPI PUSH2 0x100 DUP1 DUP4 SLOAD DIV MUL DUP4 MSTORE SWAP2 PUSH1 0x20 ADD SWAP2 PUSH2 0x3FF JUMP JUMPDEST DUP3 ADD SWAP2 SWAP1 PUSH0 MSTORE PUSH1 0x20 PUSH0 KECCAK256 SWAP1 JUMPDEST DUP2 SLOAD DUP2 MSTORE SWAP1 PUSH1 0x1 ADD SWAP1 PUSH1 0x20 ADD DUP1 DUP4 GT PUSH2 0x3E2 JUMPI DUP3 SWAP1 SUB PUSH1 0x1F AND DUP3 ADD SWAP2 JUMPDEST POP POP POP POP POP SWAP1 DUP1 PUSH1 0x1 ADD SLOAD SWAP1 POP DUP3 JUMP JUMPDEST PUSH0 PUSH0 DUP1 SLOAD SWAP1 POP SWAP1 POP SWAP1 JUMP JUMPDEST PUSH2 0x422 PUSH2 0x532 JUMP JUMPDEST PUSH0 DUP1 SLOAD SWAP1 POP DUP3 LT PUSH2 0x468 JUMPI PUSH1 0x40 MLOAD PUSH32 0x8C379A000000000000000000000000000000000000000000000000000000000 DUP2 MSTORE PUSH1 0x4 ADD PUSH2 0x45F SWAP1 PUSH2 0xDDE JUMP JUMPDEST PUSH1 0x40 MLOAD DUP1 SWAP2 SUB SWAP1 REVERT JUMPDEST PUSH0 DUP3 DUP2 SLOAD DUP2 LT PUSH2 0x47B JUMPI PUSH2 0x47A PUSH2 0xA0D JUMP JUMPDEST JUMPDEST SWAP1 PUSH0 MSTORE PUSH1 0x20 PUSH0 KECCAK256 SWAP1 PUSH1 0x2 MUL ADD PUSH1 0x40 MLOAD DUP1 PUSH1 0x40 ADD PUSH1 0x40 MSTORE SWAP1 DUP2 PUSH0 DUP3 ADD DUP1 SLOAD PUSH2 0x4A1 SWAP1 PUSH2 0xAF5 JUMP JUMPDEST DUP1 PUSH1 0x1F ADD PUSH1 0x20 DUP1 SWAP2 DIV MUL PUSH1 0x20 ADD PUSH1 0x40 MLOAD SWAP1 DUP2 ADD PUSH1 0x40 MSTORE DUP1 SWAP3 SWAP2 SWAP1 DUP2 DUP2 MSTORE PUSH1 0x20 ADD DUP3 DUP1 SLOAD PUSH2 0x4CD SWAP1 PUSH2 0xAF5 JUMP JUMPDEST DUP1 ISZERO PUSH2 0x518 JUMPI DUP1 PUSH1 0x1F LT PUSH2 0x4EF JUMPI PUSH2 0x100 DUP1 DUP4 SLOAD DIV MUL DUP4 MSTORE SWAP2 PUSH1 0x20 ADD SWAP2 PUSH2 0x518 JUMP JUMPDEST DUP3 ADD SWAP2 SWAP1 PUSH0 MSTORE PUSH1 0x20 PUSH0 KECCAK256 SWAP1 JUMPDEST DUP2 SLOAD DUP2 MSTORE SWAP1 PUSH1 0x1 ADD SWAP1 PUSH1 0x20 ADD DUP1 DUP4 GT PUSH2 0x4FB JUMPI DUP3 SWAP1 SUB PUSH1 0x1F AND DUP3 ADD SWAP2 JUMPDEST POP POP POP POP POP DUP2 MSTORE PUSH1 0x20 ADD PUSH1 0x1 DUP3 ADD SLOAD DUP2 MSTORE POP POP SWAP1 POP SWAP2 SWAP1 POP JUMP JUMPDEST PUSH1 0x40 MLOAD DUP1 PUSH1 0x40 ADD PUSH1 0x40 MSTORE DUP1 PUSH1 0x60 DUP2 MSTORE PUSH1 0x20 ADD PUSH0 DUP2 MSTORE POP SWAP1 JUMP JUMPDEST PUSH0 DUP3 DUP3 MSTORE PUSH1 0x20 DUP3 ADD SWAP1 POP SWAP3 SWAP2 POP POP JUMP JUMPDEST POP JUMP JUMPDEST PUSH0 PUSH2 0x569 PUSH0 DUP4 PUSH2 0x54B JUMP JUMPDEST SWAP2 POP PUSH2 0x574 DUP3 PUSH2 0x55B JUMP JUMPDEST PUSH0 DUP3 ADD SWAP1 POP SWAP2 SWAP1 POP JUMP JUMPDEST PUSH0 PUSH1 0x20 DUP3 ADD SWAP1 POP DUP2 DUP2 SUB PUSH0 DUP4 ADD MSTORE PUSH2 0x595 DUP2 PUSH2 0x55E JUMP JUMPDEST SWAP1 POP SWAP2 SWAP1 POP JUMP JUMPDEST PUSH0 PUSH1 0x40 MLOAD SWAP1 POP SWAP1 JUMP JUMPDEST PUSH0 PUSH0 REVERT JUMPDEST PUSH0 PUSH0 REVERT JUMPDEST PUSH0 PUSH0 REVERT JUMPDEST PUSH0 PUSH0 REVERT JUMPDEST PUSH0 PUSH1 0x1F NOT PUSH1 0x1F DUP4 ADD AND SWAP1 POP SWAP2 SWAP1 POP JUMP JUMPDEST PUSH32 0x4E487B7100000000000000000000000000000000000000000000000000000000 PUSH0 MSTORE PUSH1 0x41 PUSH1 0x4 MSTORE PUSH1 0x24 PUSH0 REVERT JUMPDEST PUSH2 0x5FB DUP3 PUSH2 0x5B5 JUMP JUMPDEST DUP2 ADD DUP2 DUP2 LT PUSH8 0xFFFFFFFFFFFFFFFF DUP3 GT OR ISZERO PUSH2 0x61A JUMPI PUSH2 0x619 PUSH2 0x5C5 JUMP JUMPDEST JUMPDEST DUP1 PUSH1 0x40 MSTORE POP POP POP JUMP JUMPDEST PUSH0 PUSH2 0x62C PUSH2 0x59C JUMP JUMPDEST SWAP1 POP PUSH2 0x638 DUP3 DUP3 PUSH2 0x5F2 JUMP JUMPDEST SWAP2 SWAP1 POP JUMP JUMPDEST PUSH0 PUSH8 0xFFFFFFFFFFFFFFFF DUP3 GT ISZERO PUSH2 0x657 JUMPI PUSH2 0x656 PUSH2 0x5C5 JUMP JUMPDEST JUMPDEST PUSH2 0x660 DUP3 PUSH2 0x5B5 JUMP JUMPDEST SWAP1 POP PUSH1 0x20 DUP2 ADD SWAP1 POP SWAP2 SWAP1 POP JUMP JUMPDEST DUP3 DUP2 DUP4 CALLDATACOPY PUSH0 DUP4 DUP4 ADD MSTORE POP POP POP JUMP JUMPDEST PUSH0 PUSH2 0x68D PUSH2 0x688 DUP5 PUSH2 0x63D JUMP JUMPDEST PUSH2 0x623 JUMP JUMPDEST SWAP1 POP DUP3 DUP2 MSTORE PUSH1 0x20 DUP2 ADD DUP5 DUP5 DUP5 ADD GT ISZERO PUSH2 0x6A9 JUMPI PUSH2 0x6A8 PUSH2 0x5B1 JUMP JUMPDEST JUMPDEST PUSH2 0x6B4 DUP5 DUP3 DUP6 PUSH2 0x66D JUMP JUMPDEST POP SWAP4 SWAP3 POP POP POP JUMP JUMPDEST PUSH0 DUP3 PUSH1 0x1F DUP4 ADD SLT PUSH2 0x6D0 JUMPI PUSH2 0x6CF PUSH2 0x5AD JUMP JUMPDEST JUMPDEST DUP2 CALLDATALOAD PUSH2 0x6E0 DUP5 DUP3 PUSH1 0x20 DUP7 ADD PUSH2 0x67B JUMP JUMPDEST SWAP2 POP POP SWAP3 SWAP2 POP POP JUMP JUMPDEST PUSH0 DUP2 SWAP1 POP SWAP2 SWAP1 POP JUMP JUMPDEST PUSH2 0x6FB DUP2 PUSH2 0x6E9 JUMP JUMPDEST DUP2 EQ PUSH2 0x705 JUMPI PUSH0 PUSH0 REVERT JUMPDEST POP JUMP JUMPDEST PUSH0 DUP2 CALLDATALOAD SWAP1 POP PUSH2 0x716 DUP2 PUSH2 0x6F2 JUMP JUMPDEST SWAP3 SWAP2 POP POP JUMP JUMPDEST PUSH0 PUSH0 PUSH1 0x40 DUP4 DUP6 SUB SLT ISZERO PUSH2 0x732 JUMPI PUSH2 0x731 PUSH2 0x5A5 JUMP JUMPDEST JUMPDEST PUSH0 DUP4 ADD CALLDATALOAD PUSH8 0xFFFFFFFFFFFFFFFF DUP2 GT ISZERO PUSH2 0x74F JUMPI PUSH2 0x74E PUSH2 0x5A9 JUMP JUMPDEST JUMPDEST PUSH2 0x75B DUP6 DUP3 DUP7 ADD PUSH2 0x6BC JUMP JUMPDEST SWAP3 POP POP PUSH1 0x20 PUSH2 0x76C DUP6 DUP3 DUP7 ADD PUSH2 0x708 JUMP JUMPDEST SWAP2 POP POP SWAP3 POP SWAP3 SWAP1 POP JUMP JUMPDEST PUSH0 DUP2 MLOAD SWAP1 POP SWAP2 SWAP1 POP JUMP JUMPDEST PUSH0 DUP3 DUP3 MSTORE PUSH1 0x20 DUP3 ADD SWAP1 POP SWAP3 SWAP2 POP POP JUMP JUMPDEST PUSH0 DUP2 SWAP1 POP PUSH1 0x20 DUP3 ADD SWAP1 POP SWAP2 SWAP1 POP JUMP JUMPDEST PUSH0 DUP2 MLOAD SWAP1 POP SWAP2 SWAP1 POP JUMP JUMPDEST PUSH0 DUP3 DUP3 MSTORE PUSH1 0x20 DUP3 ADD SWAP1 POP SWAP3 SWAP2 POP POP JUMP JUMPDEST DUP3 DUP2 DUP4 MCOPY PUSH0 DUP4 DUP4 ADD MSTORE POP POP POP JUMP JUMPDEST PUSH0 PUSH2 0x7D1 DUP3 PUSH2 0x79F JUMP JUMPDEST PUSH2 0x7DB DUP2 DUP6 PUSH2 0x7A9 JUMP JUMPDEST SWAP4 POP PUSH2 0x7EB DUP2 DUP6 PUSH1 0x20 DUP7 ADD PUSH2 0x7B9 JUMP JUMPDEST PUSH2 0x7F4 DUP2 PUSH2 0x5B5 JUMP JUMPDEST DUP5 ADD SWAP2 POP POP SWAP3 SWAP2 POP POP JUMP JUMPDEST PUSH2 0x808 DUP2 PUSH2 0x6E9 JUMP JUMPDEST DUP3 MSTORE POP POP JUMP JUMPDEST PUSH0 PUSH1 0x40 DUP4 ADD PUSH0 DUP4 ADD MLOAD DUP5 DUP3 SUB PUSH0 DUP7 ADD MSTORE PUSH2 0x828 DUP3 DUP3 PUSH2 0x7C7 JUMP JUMPDEST SWAP2 POP POP PUSH1 0x20 DUP4 ADD MLOAD PUSH2 0x83D PUSH1 0x20 DUP7 ADD DUP3 PUSH2 0x7FF JUMP JUMPDEST POP DUP1 SWAP2 POP POP SWAP3 SWAP2 POP POP JUMP JUMPDEST PUSH0 PUSH2 0x853 DUP4 DUP4 PUSH2 0x80E JUMP JUMPDEST SWAP1 POP SWAP3 SWAP2 POP POP JUMP JUMPDEST PUSH0 PUSH1 0x20 DUP3 ADD SWAP1 POP SWAP2 SWAP1 POP JUMP JUMPDEST PUSH0 PUSH2 0x871 DUP3 PUSH2 0x776 JUMP JUMPDEST PUSH2 0x87B DUP2 DUP6 PUSH2 0x780 JUMP JUMPDEST SWAP4 POP DUP4 PUSH1 0x20 DUP3 MUL DUP6 ADD PUSH2 0x88D DUP6 PUSH2 0x790 JUMP JUMPDEST DUP1 PUSH0 JUMPDEST DUP6 DUP2 LT ISZERO PUSH2 0x8C8 JUMPI DUP5 DUP5 SUB DUP10 MSTORE DUP2 MLOAD PUSH2 0x8A9 DUP6 DUP3 PUSH2 0x848 JUMP JUMPDEST SWAP5 POP PUSH2 0x8B4 DUP4 PUSH2 0x85B JUMP JUMPDEST SWAP3 POP PUSH1 0x20 DUP11 ADD SWAP10 POP POP PUSH1 0x1 DUP2 ADD SWAP1 POP PUSH2 0x890 JUMP JUMPDEST POP DUP3 SWAP8 POP DUP8 SWAP6 POP POP POP POP POP POP SWAP3 SWAP2 POP POP JUMP JUMPDEST PUSH0 PUSH1 0x20 DUP3 ADD SWAP1 POP DUP2 DUP2 SUB PUSH0 DUP4 ADD MSTORE PUSH2 0x8F2 DUP2 DUP5 PUSH2 0x867 JUMP JUMPDEST SWAP1 POP SWAP3 SWAP2 POP POP JUMP JUMPDEST PUSH0 PUSH1 0x20 DUP3 DUP5 SUB SLT ISZERO PUSH2 0x90F JUMPI PUSH2 0x90E PUSH2 0x5A5 JUMP JUMPDEST JUMPDEST PUSH0 PUSH2 0x91C DUP5 DUP3 DUP6 ADD PUSH2 0x708 JUMP JUMPDEST SWAP2 POP POP SWAP3 SWAP2 POP POP JUMP JUMPDEST PUSH0 PUSH2 0x92F DUP3 PUSH2 0x79F JUMP JUMPDEST PUSH2 0x939 DUP2 DUP6 PUSH2 0x54B JUMP JUMPDEST SWAP4 POP PUSH2 0x949 DUP2 DUP6 PUSH1 0x20 DUP7 ADD PUSH2 0x7B9 JUMP JUMPDEST PUSH2 0x952 DUP2 PUSH2 0x5B5 JUMP JUMPDEST DUP5 ADD SWAP2 POP POP SWAP3 SWAP2 POP POP JUMP JUMPDEST PUSH2 0x966 DUP2 PUSH2 0x6E9 JUMP JUMPDEST DUP3 MSTORE POP POP JUMP JUMPDEST PUSH0 PUSH1 0x40 DUP3 ADD SWAP1 POP DUP2 DUP2 SUB PUSH0 DUP4 ADD MSTORE PUSH2 0x984 DUP2 DUP6 PUSH2 0x925 JUMP JUMPDEST SWAP1 POP PUSH2 0x993 PUSH1 0x20 DUP4 ADD DUP5 PUSH2 0x95D JUMP JUMPDEST SWAP4 SWAP3 POP POP POP JUMP JUMPDEST PUSH0 PUSH1 0x20 DUP3 ADD SWAP1 POP PUSH2 0x9AD PUSH0 DUP4 ADD DUP5 PUSH2 0x95D JUMP JUMPDEST SWAP3 SWAP2 POP POP JUMP JUMPDEST PUSH0 PUSH1 0x40 DUP4 ADD PUSH0 DUP4 ADD MLOAD DUP5 DUP3 SUB PUSH0 DUP7 ADD MSTORE PUSH2 0x9CD DUP3 DUP3 PUSH2 0x7C7 JUMP JUMPDEST SWAP2 POP POP PUSH1 0x20 DUP4 ADD MLOAD PUSH2 0x9E2 PUSH1 0x20 DUP7 ADD DUP3 PUSH2 0x7FF JUMP JUMPDEST POP DUP1 SWAP2 POP POP SWAP3 SWAP2 POP POP JUMP JUMPDEST PUSH0 PUSH1 0x20 DUP3 ADD SWAP1 POP DUP2 DUP2 SUB PUSH0 DUP4 ADD MSTORE PUSH2 0xA05 DUP2 DUP5 PUSH2 0x9B3 JUMP JUMPDEST SWAP1 POP SWAP3 SWAP2 POP POP JUMP JUMPDEST PUSH32 0x4E487B7100000000000000000000000000000000000000000000000000000000 PUSH0 MSTORE PUSH1 0x32 PUSH1 0x4 MSTORE PUSH1 0x24 PUSH0 REVERT JUMPDEST PUSH32 0x53747564656E7420776974682074686973206E616D6520616C72656164792065 PUSH0 DUP3 ADD MSTORE PUSH32 0x7869737473000000000000000000000000000000000000000000000000000000 PUSH1 0x20 DUP3 ADD MSTORE POP JUMP JUMPDEST PUSH0 PUSH2 0xA94 PUSH1 0x25 DUP4 PUSH2 0x54B JUMP JUMPDEST SWAP2 POP PUSH2 0xA9F DUP3 PUSH2 0xA3A JUMP JUMPDEST PUSH1 0x40 DUP3 ADD SWAP1 POP SWAP2 SWAP1 POP JUMP JUMPDEST PUSH0 PUSH1 0x20 DUP3 ADD SWAP1 POP DUP2 DUP2 SUB PUSH0 DUP4 ADD MSTORE PUSH2 0xAC1 DUP2 PUSH2 0xA88 JUMP JUMPDEST SWAP1 POP SWAP2 SWAP1 POP JUMP JUMPDEST PUSH32 0x4E487B7100000000000000000000000000000000000000000000000000000000 PUSH0 MSTORE PUSH1 0x22 PUSH1 0x4 MSTORE PUSH1 0x24 PUSH0 REVERT JUMPDEST PUSH0 PUSH1 0x2 DUP3 DIV SWAP1 POP PUSH1 0x1 DUP3 AND DUP1 PUSH2 0xB0C JUMPI PUSH1 0x7F DUP3 AND SWAP2 POP JUMPDEST PUSH1 0x20 DUP3 LT DUP2 SUB PUSH2 0xB1F JUMPI PUSH2 0xB1E PUSH2 0xAC8 JUMP JUMPDEST JUMPDEST POP SWAP2 SWAP1 POP JUMP JUMPDEST PUSH0 DUP2 SWAP1 POP DUP2 PUSH0 MSTORE PUSH1 0x20 PUSH0 KECCAK256 SWAP1 POP SWAP2 SWAP1 POP JUMP JUMPDEST PUSH0 PUSH1 0x20 PUSH1 0x1F DUP4 ADD DIV SWAP1 POP SWAP2 SWAP1 POP JUMP JUMPDEST PUSH0 DUP3 DUP3 SHL SWAP1 POP SWAP3 SWAP2 POP POP JUMP JUMPDEST PUSH0 PUSH1 0x8 DUP4 MUL PUSH2 0xB81 PUSH32 0xFFFFFFFFFFFFFFFFFFFFFFFFFFFFFFFFFFFFFFFFFFFFFFFFFFFFFFFFFFFFFFFF DUP3 PUSH2 0xB46 JUMP JUMPDEST PUSH2 0xB8B DUP7 DUP4 PUSH2 0xB46 JUMP JUMPDEST SWAP6 POP DUP1 NOT DUP5 AND SWAP4 POP DUP1 DUP7 AND DUP5 OR SWAP3 POP POP POP SWAP4 SWAP3 POP POP POP JUMP JUMPDEST PUSH0 DUP2 SWAP1 POP SWAP2 SWAP1 POP JUMP JUMPDEST PUSH0 PUSH2 0xBC6 PUSH2 0xBC1 PUSH2 0xBBC DUP5 PUSH2 0x6E9 JUMP JUMPDEST PUSH2 0xBA3 JUMP JUMPDEST PUSH2 0x6E9 JUMP JUMPDEST SWAP1 POP SWAP2 SWAP1 POP JUMP JUMPDEST PUSH0 DUP2 SWAP1 POP SWAP2 SWAP1 POP JUMP JUMPDEST PUSH2 0xBDF DUP4 PUSH2 0xBAC JUMP JUMPDEST PUSH2 0xBF3 PUSH2 0xBEB DUP3 PUSH2 0xBCD JUMP JUMPDEST DUP5 DUP5 SLOAD PUSH2 0xB52 JUMP JUMPDEST DUP3 SSTORE POP POP POP POP JUMP JUMPDEST PUSH0 PUSH0 SWAP1 POP SWAP1 JUMP JUMPDEST PUSH2 0xC0A PUSH2 0xBFB JUMP JUMPDEST PUSH2 0xC15 DUP2 DUP5 DUP5 PUSH2 0xBD6 JUMP JUMPDEST POP POP POP JUMP JUMPDEST JUMPDEST DUP2 DUP2 LT ISZERO PUSH2 0xC38 JUMPI PUSH2 0xC2D PUSH0 DUP3 PUSH2 0xC02 JUMP JUMPDEST PUSH1 0x1 DUP2 ADD SWAP1 POP PUSH2 0xC1B JUMP JUMPDEST POP POP JUMP JUMPDEST PUSH1 0x1F DUP3 GT ISZERO PUSH2 0xC7D JUMPI PUSH2 0xC4E DUP2 PUSH2 0xB25 JUMP JUMPDEST PUSH2 0xC57 DUP5 PUSH2 0xB37 JUMP JUMPDEST DUP2 ADD PUSH1 0x20 DUP6 LT ISZERO PUSH2 0xC66 JUMPI DUP2 SWAP1 POP JUMPDEST PUSH2 0xC7A PUSH2 0xC72 DUP6 PUSH2 0xB37 JUMP JUMPDEST DUP4 ADD DUP3 PUSH2 0xC1A JUMP JUMPDEST POP POP JUMPDEST POP POP POP JUMP JUMPDEST PUSH0 DUP3 DUP3 SHR SWAP1 POP SWAP3 SWAP2 POP POP JUMP JUMPDEST PUSH0 PUSH2 0xC9D PUSH0 NOT DUP5 PUSH1 0x8 MUL PUSH2 0xC82 JUMP JUMPDEST NOT DUP1 DUP4 AND SWAP2 POP POP SWAP3 SWAP2 POP POP JUMP JUMPDEST PUSH0 PUSH2 0xCB5 DUP4 DUP4 PUSH2 0xC8E JUMP JUMPDEST SWAP2 POP DUP3 PUSH1 0x2 MUL DUP3 OR SWAP1 POP SWAP3 SWAP2 POP POP JUMP JUMPDEST PUSH2 0xCCE DUP3 PUSH2 0x79F JUMP JUMPDEST PUSH8 0xFFFFFFFFFFFFFFFF DUP2 GT ISZERO PUSH2 0xCE7 JUMPI PUSH2 0xCE6 PUSH2 0x5C5 JUMP JUMPDEST JUMPDEST PUSH2 0xCF1 DUP3 SLOAD PUSH2 0xAF5 JUMP JUMPDEST PUSH2 0xCFC DUP3 DUP3 DUP6 PUSH2 0xC3C JUMP JUMPDEST PUSH0 PUSH1 0x20 SWAP1 POP PUSH1 0x1F DUP4 GT PUSH1 0x1 DUP2 EQ PUSH2 0xD2D JUMPI PUSH0 DUP5 ISZERO PUSH2 0xD1B JUMPI DUP3 DUP8 ADD MLOAD SWAP1 POP JUMPDEST PUSH2 0xD25 DUP6 DUP3 PUSH2 0xCAA JUMP JUMPDEST DUP7 SSTORE POP PUSH2 0xD8C JUMP JUMPDEST PUSH1 0x1F NOT DUP5 AND PUSH2 0xD3B DUP7 PUSH2 0xB25 JUMP JUMPDEST PUSH0 JUMPDEST DUP3 DUP2 LT ISZERO PUSH2 0xD62 JUMPI DUP5 DUP10 ADD MLOAD DUP3 SSTORE PUSH1 0x1 DUP3 ADD SWAP2 POP PUSH1 0x20 DUP6 ADD SWAP5 POP PUSH1 0x20 DUP2 ADD SWAP1 POP PUSH2 0xD3D JUMP JUMPDEST DUP7 DUP4 LT ISZERO PUSH2 0xD7F JUMPI DUP5 DUP10 ADD MLOAD PUSH2 0xD7B PUSH1 0x1F DUP10 AND DUP3 PUSH2 0xC8E JUMP JUMPDEST DUP4 SSTORE POP JUMPDEST PUSH1 0x1 PUSH1 0x2 DUP9 MUL ADD DUP9 SSTORE POP POP POP JUMPDEST POP POP POP POP POP POP JUMP JUMPDEST PUSH32 0x496E646578206F7574206F6620626F756E640000000000000000000000000000 PUSH0 DUP3 ADD MSTORE POP JUMP JUMPDEST PUSH0 PUSH2 0xDC8 PUSH1 0x12 DUP4 PUSH2 0x54B JUMP JUMPDEST SWAP2 POP PUSH2 0xDD3 DUP3 PUSH2 0xD94 JUMP JUMPDEST PUSH1 0x20 DUP3 ADD SWAP1 POP SWAP2 SWAP1 POP JUMP JUMPDEST PUSH0 PUSH1 0x20 DUP3 ADD SWAP1 POP DUP2 DUP2 SUB PUSH0 DUP4 ADD MSTORE PUSH2 0xDF5 DUP2 PUSH2 0xDBC JUMP JUMPDEST SWAP1 POP SWAP2 SWAP1 POP JUMP INVALID LOG2 PUSH5 0x6970667358 0x22 SLT KECCAK256 ISZERO RETURN 0xC1 SWAP7 PUSH8 0x460B5CC0CB250323 SELFDESTRUCT SWAP3 PUSH14 0x812A6EC20722DDB6385E67B6718B 0xEF 0xF PUSH5 0x736F6C6343 STOP ADDMOD 0x1E STOP CALLER "
				},
				"gasEstimates": {
					"creation": {
						"codeDepositCost": "726800",
						"executionCost": "758",
						"totalCost": "727558"
					},
					"external": {
						"": "447",
						"addStudent(string,uint256)": "infinite",
						"displayAll()": "infinite",
						"getStudentByIndex(uint256)": "infinite",
						"getStudentLen()": "2483",
						"studentarr(uint256)": "infinite"
					}
				},
				"methodIdentifiers": {
					"addStudent(string,uint256)": "0e5eeef7",
					"displayAll()": "4c9beb53",
					"getStudentByIndex(uint256)": "dc78302b",
					"getStudentLen()": "d623bdd1",
					"studentarr(uint256)": "811197c1"
				}
			},
			"storageLayout": {
				"storage": [
					{
						"astId": 10,
						"contract": "bt/StudentData.sol:Student",
						"label": "studentarr",
						"offset": 0,
						"slot": "0",
						"type": "t_array(t_struct(StudentStruct)6_storage)dyn_storage"
					}
				],
				"types": {
					"t_array(t_struct(StudentStruct)6_storage)dyn_storage": {
						"base": "t_struct(StudentStruct)6_storage",
						"encoding": "dynamic_array",
						"label": "struct Student.StudentStruct[]",
						"numberOfBytes": "32"
					},
					"t_string_storage": {
						"encoding": "bytes",
						"label": "string",
						"numberOfBytes": "32"
					},
					"t_struct(StudentStruct)6_storage": {
						"encoding": "inplace",
						"label": "struct Student.StudentStruct",
						"members": [
							{
								"astId": 3,
								"contract": "bt/StudentData.sol:Student",
								"label": "name",
								"offset": 0,
								"slot": "0",
								"type": "t_string_storage"
							},
							{
								"astId": 5,
								"contract": "bt/StudentData.sol:Student",
								"label": "rollno",
								"offset": 0,
								"slot": "1",
								"type": "t_uint256"
							}
						],
						"numberOfBytes": "64"
					},
					"t_uint256": {
						"encoding": "inplace",
						"label": "uint256",
						"numberOfBytes": "32"
					}
				}
			},
			"userdoc": {
				"kind": "user",
				"methods": {},
				"version": 1
			}
		}
	}
}